{
  "_format": "hh-sol-artifact-1",
  "contractName": "Utils",
  "sourceName": "contracts/SPv2/Utils.sol",
  "abi": [
    {
      "inputs": [
        {
          "internalType": "address",
          "name": "_base",
          "type": "address"
        }
      ],
      "stateMutability": "nonpayable",
      "type": "constructor"
    },
    {
      "inputs": [],
      "name": "BASE",
      "outputs": [
        {
          "internalType": "address",
          "name": "",
          "type": "address"
        }
      ],
      "stateMutability": "view",
      "type": "function"
    },
    {
      "inputs": [
        {
          "internalType": "address",
          "name": "synth",
          "type": "address"
        },
        {
          "internalType": "uint256",
          "name": "amount",
          "type": "uint256"
        }
      ],
      "name": "calcActualSynthUnits",
      "outputs": [
        {
          "internalType": "uint256",
          "name": "_output",
          "type": "uint256"
        }
      ],
      "stateMutability": "view",
      "type": "function"
    },
    {
      "inputs": [
        {
          "internalType": "uint256",
          "name": "units",
          "type": "uint256"
        },
        {
          "internalType": "address",
          "name": "token",
          "type": "address"
        },
        {
          "internalType": "address",
          "name": "pool",
          "type": "address"
        }
      ],
      "name": "calcLiquidityHoldings",
      "outputs": [
        {
          "internalType": "uint256",
          "name": "share",
          "type": "uint256"
        }
      ],
      "stateMutability": "view",
      "type": "function"
    },
    {
      "inputs": [
        {
          "internalType": "uint256",
          "name": "b",
          "type": "uint256"
        },
        {
          "internalType": "uint256",
          "name": "B",
          "type": "uint256"
        },
        {
          "internalType": "uint256",
          "name": "t",
          "type": "uint256"
        },
        {
          "internalType": "uint256",
          "name": "T",
          "type": "uint256"
        },
        {
          "internalType": "uint256",
          "name": "P",
          "type": "uint256"
        }
      ],
      "name": "calcLiquidityUnits",
      "outputs": [
        {
          "internalType": "uint256",
          "name": "units",
          "type": "uint256"
        }
      ],
      "stateMutability": "pure",
      "type": "function"
    },
    {
      "inputs": [
        {
          "internalType": "uint256",
          "name": "amount",
          "type": "uint256"
        },
        {
          "internalType": "address",
          "name": "pool",
          "type": "address"
        }
      ],
      "name": "calcLiquidityUnitsAsym",
      "outputs": [
        {
          "internalType": "uint256",
          "name": "units",
          "type": "uint256"
        }
      ],
      "stateMutability": "view",
      "type": "function"
    },
    {
      "inputs": [
        {
          "internalType": "uint256",
          "name": "bp",
          "type": "uint256"
        },
        {
          "internalType": "uint256",
          "name": "total",
          "type": "uint256"
        }
      ],
      "name": "calcPart",
      "outputs": [
        {
          "internalType": "uint256",
          "name": "",
          "type": "uint256"
        }
      ],
      "stateMutability": "view",
      "type": "function"
    },
    {
      "inputs": [
        {
          "internalType": "uint256",
          "name": "part",
          "type": "uint256"
        },
        {
          "internalType": "uint256",
          "name": "total",
          "type": "uint256"
        },
        {
          "internalType": "uint256",
          "name": "amount",
          "type": "uint256"
        }
      ],
      "name": "calcShare",
      "outputs": [
        {
          "internalType": "uint256",
          "name": "share",
          "type": "uint256"
        }
      ],
      "stateMutability": "pure",
      "type": "function"
    },
    {
      "inputs": [
        {
          "internalType": "address",
          "name": "token",
          "type": "address"
        },
        {
          "internalType": "uint256",
          "name": "amount",
          "type": "uint256"
        }
      ],
      "name": "calcSpotValueInBase",
      "outputs": [
        {
          "internalType": "uint256",
          "name": "value",
          "type": "uint256"
        }
      ],
      "stateMutability": "view",
      "type": "function"
    },
    {
      "inputs": [
        {
          "internalType": "address",
          "name": "synth",
          "type": "address"
        },
        {
          "internalType": "uint256",
          "name": "amount",
          "type": "uint256"
        }
      ],
      "name": "calcSpotValueInBaseWithSynth",
      "outputs": [
        {
          "internalType": "uint256",
          "name": "value",
          "type": "uint256"
        }
      ],
      "stateMutability": "view",
      "type": "function"
    },
    {
      "inputs": [
        {
          "internalType": "uint256",
          "name": "x",
          "type": "uint256"
        },
        {
          "internalType": "uint256",
          "name": "X",
          "type": "uint256"
        },
        {
          "internalType": "uint256",
          "name": "Y",
          "type": "uint256"
        }
      ],
      "name": "calcSwapFee",
      "outputs": [
        {
          "internalType": "uint256",
          "name": "output",
          "type": "uint256"
        }
      ],
      "stateMutability": "pure",
      "type": "function"
    },
    {
      "inputs": [
        {
          "internalType": "uint256",
          "name": "x",
          "type": "uint256"
        },
        {
          "internalType": "uint256",
          "name": "X",
          "type": "uint256"
        },
        {
          "internalType": "uint256",
          "name": "Y",
          "type": "uint256"
        }
      ],
      "name": "calcSwapOutput",
      "outputs": [
        {
          "internalType": "uint256",
          "name": "output",
          "type": "uint256"
        }
      ],
      "stateMutability": "pure",
      "type": "function"
    },
    {
      "inputs": [
        {
          "internalType": "address",
          "name": "token",
          "type": "address"
        },
        {
          "internalType": "uint256",
          "name": "amount",
          "type": "uint256"
        }
      ],
      "name": "calcSwapValueInBase",
      "outputs": [
        {
          "internalType": "uint256",
          "name": "_output",
          "type": "uint256"
        }
      ],
      "stateMutability": "view",
      "type": "function"
    },
    {
      "inputs": [
        {
          "internalType": "address",
          "name": "token",
          "type": "address"
        },
        {
          "internalType": "uint256",
          "name": "amount",
          "type": "uint256"
        }
      ],
      "name": "calcSwapValueInToken",
      "outputs": [
        {
          "internalType": "uint256",
          "name": "_output",
          "type": "uint256"
        }
      ],
      "stateMutability": "view",
      "type": "function"
    },
    {
      "inputs": [
        {
          "internalType": "uint256",
          "name": "",
          "type": "uint256"
        },
        {
          "internalType": "uint256",
          "name": "",
          "type": "uint256"
        }
      ],
      "name": "getFeeOnTransfer",
      "outputs": [
        {
          "internalType": "uint256",
          "name": "",
          "type": "uint256"
        }
      ],
      "stateMutability": "pure",
      "type": "function"
    },
    {
      "inputs": [
        {
          "internalType": "address",
          "name": "token",
          "type": "address"
        }
      ],
      "name": "getPool",
      "outputs": [
        {
          "internalType": "address",
          "name": "pool",
          "type": "address"
        }
      ],
      "stateMutability": "view",
      "type": "function"
    },
    {
      "inputs": [
        {
          "internalType": "address",
          "name": "token",
          "type": "address"
        }
      ],
      "name": "getPoolData",
      "outputs": [
        {
          "components": [
            {
              "internalType": "address",
              "name": "tokenAddress",
              "type": "address"
            },
            {
              "internalType": "address",
              "name": "poolAddress",
              "type": "address"
            },
            {
              "internalType": "uint256",
              "name": "genesis",
              "type": "uint256"
            },
            {
              "internalType": "uint256",
              "name": "baseAmount",
              "type": "uint256"
            },
            {
              "internalType": "uint256",
              "name": "tokenAmount",
              "type": "uint256"
            },
            {
              "internalType": "uint256",
              "name": "poolUnits",
              "type": "uint256"
            },
            {
              "internalType": "uint256",
              "name": "synthCap",
              "type": "uint256"
            },
            {
              "internalType": "uint256",
              "name": "baseCap",
              "type": "uint256"
            }
          ],
          "internalType": "struct Utils.PoolDataStruct",
          "name": "poolData",
          "type": "tuple"
        }
      ],
      "stateMutability": "view",
      "type": "function"
    },
    {
      "inputs": [
        {
          "internalType": "address",
          "name": "pool",
          "type": "address"
        },
        {
          "internalType": "uint256",
          "name": "units",
          "type": "uint256"
        }
      ],
      "name": "getPoolShareWeight",
      "outputs": [
        {
          "internalType": "uint256",
          "name": "weight",
          "type": "uint256"
        }
      ],
      "stateMutability": "view",
      "type": "function"
    },
    {
      "inputs": [
        {
          "internalType": "uint256",
          "name": "b",
          "type": "uint256"
        },
        {
          "internalType": "uint256",
          "name": "B",
          "type": "uint256"
        },
        {
          "internalType": "uint256",
          "name": "t",
          "type": "uint256"
        },
        {
          "internalType": "uint256",
          "name": "T",
          "type": "uint256"
        }
      ],
      "name": "getSlipAdjustment",
      "outputs": [
        {
          "internalType": "uint256",
          "name": "slipAdjustment",
          "type": "uint256"
        }
      ],
      "stateMutability": "pure",
      "type": "function"
    },
    {
      "inputs": [
        {
          "internalType": "address",
          "name": "token",
          "type": "address"
        }
      ],
      "name": "getSynth",
      "outputs": [
        {
          "internalType": "address",
          "name": "synth",
          "type": "address"
        }
      ],
      "stateMutability": "view",
      "type": "function"
    }
  ],
  "bytecode": "0x60a06040523480156200001157600080fd5b50604051620025453803806200254583398181016040528101906200003791906200008c565b8073ffffffffffffffffffffffffffffffffffffffff1660808173ffffffffffffffffffffffffffffffffffffffff1660601b815250505062000106565b6000815190506200008681620000ec565b92915050565b6000602082840312156200009f57600080fd5b6000620000af8482850162000075565b91505092915050565b6000620000c582620000cc565b9050919050565b600073ffffffffffffffffffffffffffffffffffffffff82169050919050565b620000f781620000b8565b81146200010357600080fd5b50565b60805160601c61240b6200013a60003960008181610bc8015281816111c701528181611b450152611b6b015261240b6000f3fe608060405234801561001057600080fd5b50600436106101215760003560e01c8063896a708c116100ad578063c19387df11610071578063c19387df146103c6578063c5c11ee9146103f6578063ca2e5b6514610426578063dcec811614610456578063ec342ad01461048657610121565b8063896a708c146102d65780638b18b11514610306578063b80e44b814610336578063b86a82ef14610366578063bbe4f6db1461039657610121565b80635a7b2ed3116100f45780635a7b2ed3146101e65780635f2c12e8146102165780636c5054d014610246578063701baaf314610276578063714270ab146102a657610121565b806302bf4bf81461012657806313d21cdf146101565780631ba326c41461018657806348c0fd8f146101b6575b600080fd5b610140600480360381019061013b9190611edc565b6104a4565b60405161014d9190612151565b60405180910390f35b610170600480360381019061016b9190611ce6565b6105b2565b60405161017d9190612135565b60405180910390f35b6101a0600480360381019061019b9190611e8d565b610967565b6040516101ad9190612151565b60405180910390f35b6101d060048036038101906101cb9190611d38565b6109d7565b6040516101dd9190612151565b60405180910390f35b61020060048036038101906101fb9190611e02565b610bc3565b60405161020d9190612151565b60405180910390f35b610230600480360381019061022b9190611d38565b610e07565b60405161023d9190612151565b60405180910390f35b610260600480360381019061025b9190611d38565b610f2f565b60405161026d9190612151565b60405180910390f35b610290600480360381019061028b9190611e8d565b611127565b60405161029d9190612151565b60405180910390f35b6102c060048036038101906102bb9190611e51565b6111c3565b6040516102cd9190612151565b60405180910390f35b6102f060048036038101906102eb9190611e8d565b61127d565b6040516102fd9190612151565b60405180910390f35b610320600480360381019061031b9190611e51565b611319565b60405161032d9190612151565b60405180910390f35b610350600480360381019061034b9190611d38565b611321565b60405161035d9190612151565b60405180910390f35b610380600480360381019061037b9190611dc6565b611449565b60405161038d9190612151565b60405180910390f35b6103b060048036038101906103ab9190611ce6565b611586565b6040516103bd91906120da565b60405180910390f35b6103e060048036038101906103db9190611d38565b61169c565b6040516103ed9190612151565b60405180910390f35b610410600480360381019061040b9190611f3f565b611813565b60405161041d9190612151565b60405180910390f35b610440600480360381019061043b9190611d38565b61191e565b60405161044d9190612151565b60405180910390f35b610470600480360381019061046b9190611ce6565b611a2d565b60405161047d91906120da565b60405180910390f35b61048e611b43565b60405161049b91906120da565b60405180910390f35b60008083856104b39190612204565b9050600083876104c39190612204565b90506000868860026104d59190612204565b6104df919061217d565b9050600085876104ef919061217d565b905060008385111561050e578385610507919061225e565b905061051d565b848461051a919061225e565b90505b6000828461052b9190612204565b905060008111610570576040517f08c379a0000000000000000000000000000000000000000000000000000000008152600401610567906120f5565b60405180910390fd5b80670de0b6b3a7640000836105859190612204565b61058f91906121d3565b670de0b6b3a76400006105a2919061225e565b9650505050505050949350505050565b6105ba611c0c565b60006105c583611586565b905082826000019073ffffffffffffffffffffffffffffffffffffffff16908173ffffffffffffffffffffffffffffffffffffffff168152505080826020019073ffffffffffffffffffffffffffffffffffffffff16908173ffffffffffffffffffffffffffffffffffffffff16815250508073ffffffffffffffffffffffffffffffffffffffff1663a7f0b3de6040518163ffffffff1660e01b815260040160206040518083038186803b15801561067d57600080fd5b505afa158015610691573d6000803e3d6000fd5b505050506040513d601f19601f820116820180604052508101906106b59190611d9d565b8260400181815250508073ffffffffffffffffffffffffffffffffffffffff16634864d1406040518163ffffffff1660e01b815260040160206040518083038186803b15801561070457600080fd5b505afa158015610718573d6000803e3d6000fd5b505050506040513d601f19601f8201168201806040525081019061073c9190611d9d565b8260600181815250508073ffffffffffffffffffffffffffffffffffffffff1663eec7faa16040518163ffffffff1660e01b815260040160206040518083038186803b15801561078b57600080fd5b505afa15801561079f573d6000803e3d6000fd5b505050506040513d601f19601f820116820180604052508101906107c39190611d9d565b8260800181815250508073ffffffffffffffffffffffffffffffffffffffff166318160ddd6040518163ffffffff1660e01b815260040160206040518083038186803b15801561081257600080fd5b505afa158015610826573d6000803e3d6000fd5b505050506040513d601f19601f8201168201806040525081019061084a9190611d9d565b8260a00181815250508073ffffffffffffffffffffffffffffffffffffffff166333ca78e46040518163ffffffff1660e01b815260040160206040518083038186803b15801561089957600080fd5b505afa1580156108ad573d6000803e3d6000fd5b505050506040513d601f19601f820116820180604052508101906108d19190611d9d565b8260c00181815250508073ffffffffffffffffffffffffffffffffffffffff1663cbbcf8026040518163ffffffff1660e01b815260040160206040518083038186803b15801561092057600080fd5b505afa158015610934573d6000803e3d6000fd5b505050506040513d601f19601f820116820180604052508101906109589190611d9d565b8260e001818152505050919050565b60008083116109ab576040517f08c379a00000000000000000000000000000000000000000000000000000000081526004016109a2906120f5565b60405180910390fd5b828411156109b7578293505b8284836109c49190612204565b6109ce91906121d3565b90509392505050565b6000808373ffffffffffffffffffffffffffffffffffffffff16637535d2466040518163ffffffff1660e01b815260040160206040518083038186803b158015610a2057600080fd5b505afa158015610a34573d6000803e3d6000fd5b505050506040513d601f19601f82011682018060405250810190610a589190611d0f565b905060008173ffffffffffffffffffffffffffffffffffffffff16634864d1406040518163ffffffff1660e01b815260040160206040518083038186803b158015610aa257600080fd5b505afa158015610ab6573d6000803e3d6000fd5b505050506040513d601f19601f82011682018060405250810190610ada9190611d9d565b905060008273ffffffffffffffffffffffffffffffffffffffff1663eec7faa16040518163ffffffff1660e01b815260040160206040518083038186803b158015610b2457600080fd5b505afa158015610b38573d6000803e3d6000fd5b505050506040513d601f19601f82011682018060405250810190610b5c9190611d9d565b905060008111610ba1576040517f08c379a0000000000000000000000000000000000000000000000000000000008152600401610b98906120f5565b60405180910390fd5b808286610bae9190612204565b610bb891906121d3565b935050505092915050565b6000807f000000000000000000000000000000000000000000000000000000000000000073ffffffffffffffffffffffffffffffffffffffff168473ffffffffffffffffffffffffffffffffffffffff161415610c9f578273ffffffffffffffffffffffffffffffffffffffff16634864d1406040518163ffffffff1660e01b815260040160206040518083038186803b158015610c6057600080fd5b505afa158015610c74573d6000803e3d6000fd5b505050506040513d601f19601f82011682018060405250810190610c989190611d9d565b9050610d20565b8273ffffffffffffffffffffffffffffffffffffffff1663eec7faa16040518163ffffffff1660e01b815260040160206040518083038186803b158015610ce557600080fd5b505afa158015610cf9573d6000803e3d6000fd5b505050506040513d601f19601f82011682018060405250810190610d1d9190611d9d565b90505b60008373ffffffffffffffffffffffffffffffffffffffff166318160ddd6040518163ffffffff1660e01b815260040160206040518083038186803b158015610d6857600080fd5b505afa158015610d7c573d6000803e3d6000fd5b505050506040513d601f19601f82011682018060405250810190610da09190611d9d565b905060008111610de5576040517f08c379a0000000000000000000000000000000000000000000000000000000008152600401610ddc906120f5565b60405180910390fd5b808683610df29190612204565b610dfc91906121d3565b925050509392505050565b600080610e1384611586565b905060008173ffffffffffffffffffffffffffffffffffffffff16634864d1406040518163ffffffff1660e01b815260040160206040518083038186803b158015610e5d57600080fd5b505afa158015610e71573d6000803e3d6000fd5b505050506040513d601f19601f82011682018060405250810190610e959190611d9d565b905060008273ffffffffffffffffffffffffffffffffffffffff1663eec7faa16040518163ffffffff1660e01b815260040160206040518083038186803b158015610edf57600080fd5b505afa158015610ef3573d6000803e3d6000fd5b505050506040513d601f19601f82011682018060405250810190610f179190611d9d565b9050610f24858383611127565b935050505092915050565b6000808373ffffffffffffffffffffffffffffffffffffffff16637535d2466040518163ffffffff1660e01b815260040160206040518083038186803b158015610f7857600080fd5b505afa158015610f8c573d6000803e3d6000fd5b505050506040513d601f19601f82011682018060405250810190610fb09190611d0f565b905060008173ffffffffffffffffffffffffffffffffffffffff16634864d1406040518163ffffffff1660e01b815260040160206040518083038186803b158015610ffa57600080fd5b505afa15801561100e573d6000803e3d6000fd5b505050506040513d601f19601f820116820180604052508101906110329190611d9d565b905060008273ffffffffffffffffffffffffffffffffffffffff1663eec7faa16040518163ffffffff1660e01b815260040160206040518083038186803b15801561107c57600080fd5b505afa158015611090573d6000803e3d6000fd5b505050506040513d601f19601f820116820180604052508101906110b49190611d9d565b9050600081116110f9576040517f08c379a00000000000000000000000000000000000000000000000000000000081526004016110f0906120f5565b60405180910390fd5b8060026111069190612204565b82866111129190612204565b61111c91906121d3565b935050505092915050565b6000808284866111379190612204565b6111419190612204565b905060008486611151919061217d565b858761115d919061217d565b6111679190612204565b9050600081116111ac576040517f08c379a00000000000000000000000000000000000000000000000000000000081526004016111a3906120f5565b60405180910390fd5b80826111b891906121d3565b925050509392505050565b60007f000000000000000000000000000000000000000000000000000000000000000073ffffffffffffffffffffffffffffffffffffffff163373ffffffffffffffffffffffffffffffffffffffff1614156112225760009050611277565b612710831115611267576040517f08c379a000000000000000000000000000000000000000000000000000000000815260040161125e90612115565b60405180910390fd5b6112748361271084610967565b90505b92915050565b60008082858661128d9190612204565b6112979190612204565b9050600084866112a7919061217d565b85876112b3919061217d565b6112bd9190612204565b905060008111611302576040517f08c379a00000000000000000000000000000000000000000000000000000000081526004016112f9906120f5565b60405180910390fd5b808261130e91906121d3565b925050509392505050565b600092915050565b60008061132d84611586565b905060008173ffffffffffffffffffffffffffffffffffffffff16634864d1406040518163ffffffff1660e01b815260040160206040518083038186803b15801561137757600080fd5b505afa15801561138b573d6000803e3d6000fd5b505050506040513d601f19601f820116820180604052508101906113af9190611d9d565b905060008273ffffffffffffffffffffffffffffffffffffffff1663eec7faa16040518163ffffffff1660e01b815260040160206040518083038186803b1580156113f957600080fd5b505afa15801561140d573d6000803e3d6000fd5b505050506040513d601f19601f820116820180604052508101906114319190611d9d565b905061143e858284611127565b935050505092915050565b6000808273ffffffffffffffffffffffffffffffffffffffff16634864d1406040518163ffffffff1660e01b815260040160206040518083038186803b15801561149257600080fd5b505afa1580156114a6573d6000803e3d6000fd5b505050506040513d601f19601f820116820180604052508101906114ca9190611d9d565b905060008373ffffffffffffffffffffffffffffffffffffffff166318160ddd6040518163ffffffff1660e01b815260040160206040518083038186803b15801561151457600080fd5b505afa158015611528573d6000803e3d6000fd5b505050506040513d601f19601f8201168201806040525081019061154c9190611d9d565b90506002828661155c919061217d565b6115669190612204565b85826115729190612204565b61157c91906121d3565b9250505092915050565b6000611590611b67565b73ffffffffffffffffffffffffffffffffffffffff1663b99b0a0c6040518163ffffffff1660e01b815260040160206040518083038186803b1580156115d557600080fd5b505afa1580156115e9573d6000803e3d6000fd5b505050506040513d601f19601f8201168201806040525081019061160d9190611d0f565b73ffffffffffffffffffffffffffffffffffffffff1663bbe4f6db836040518263ffffffff1660e01b815260040161164591906120da565b60206040518083038186803b15801561165d57600080fd5b505afa158015611671573d6000803e3d6000fd5b505050506040513d601f19601f820116820180604052508101906116959190611d0f565b9050919050565b6000806116a884611586565b905060008173ffffffffffffffffffffffffffffffffffffffff16634864d1406040518163ffffffff1660e01b815260040160206040518083038186803b1580156116f257600080fd5b505afa158015611706573d6000803e3d6000fd5b505050506040513d601f19601f8201168201806040525081019061172a9190611d9d565b905060008273ffffffffffffffffffffffffffffffffffffffff1663eec7faa16040518163ffffffff1660e01b815260040160206040518083038186803b15801561177457600080fd5b505afa158015611788573d6000803e3d6000fd5b505050506040513d601f19601f820116820180604052508101906117ac9190611d9d565b9050600081116117f1576040517f08c379a00000000000000000000000000000000000000000000000000000000081526004016117e8906120f5565b60405180910390fd5b8082866117fe9190612204565b61180891906121d3565b935050505092915050565b60008082141561182557859050611915565b6000611833878787876104a4565b9050670d99a8cec7e20000811161184957600080fd5b600086866118579190612204565b9050600088866118679190612204565b90506000600289886118799190612204565b6118839190612204565b9050600081116118c8576040517f08c379a00000000000000000000000000000000000000000000000000000000081526004016118bf906120f5565b60405180910390fd5b60008183856118d7919061217d565b886118e29190612204565b6118ec91906121d3565b9050670de0b6b3a764000085826119039190612204565b61190d91906121d3565b955050505050505b95945050505050565b6000611a25828473ffffffffffffffffffffffffffffffffffffffff166318160ddd6040518163ffffffff1660e01b815260040160206040518083038186803b15801561196a57600080fd5b505afa15801561197e573d6000803e3d6000fd5b505050506040513d601f19601f820116820180604052508101906119a29190611d9d565b8573ffffffffffffffffffffffffffffffffffffffff16634864d1406040518163ffffffff1660e01b815260040160206040518083038186803b1580156119e857600080fd5b505afa1580156119fc573d6000803e3d6000fd5b505050506040513d601f19601f82011682018060405250810190611a209190611d9d565b610967565b905092915050565b6000611a37611b67565b73ffffffffffffffffffffffffffffffffffffffff1663b93ec54b6040518163ffffffff1660e01b815260040160206040518083038186803b158015611a7c57600080fd5b505afa158015611a90573d6000803e3d6000fd5b505050506040513d601f19601f82011682018060405250810190611ab49190611d0f565b73ffffffffffffffffffffffffffffffffffffffff1663dcec8116836040518263ffffffff1660e01b8152600401611aec91906120da565b60206040518083038186803b158015611b0457600080fd5b505afa158015611b18573d6000803e3d6000fd5b505050506040513d601f19601f82011682018060405250810190611b3c9190611d0f565b9050919050565b7f000000000000000000000000000000000000000000000000000000000000000081565b60007f000000000000000000000000000000000000000000000000000000000000000073ffffffffffffffffffffffffffffffffffffffff166398fabd3a6040518163ffffffff1660e01b815260040160206040518083038186803b158015611bcf57600080fd5b505afa158015611be3573d6000803e3d6000fd5b505050506040513d601f19601f82011682018060405250810190611c079190611d74565b905090565b604051806101000160405280600073ffffffffffffffffffffffffffffffffffffffff168152602001600073ffffffffffffffffffffffffffffffffffffffff1681526020016000815260200160008152602001600081526020016000815260200160008152602001600081525090565b600081359050611c8c81612390565b92915050565b600081519050611ca181612390565b92915050565b600081519050611cb6816123a7565b92915050565b600081359050611ccb816123be565b92915050565b600081519050611ce0816123be565b92915050565b600060208284031215611cf857600080fd5b6000611d0684828501611c7d565b91505092915050565b600060208284031215611d2157600080fd5b6000611d2f84828501611c92565b91505092915050565b60008060408385031215611d4b57600080fd5b6000611d5985828601611c7d565b9250506020611d6a85828601611cbc565b9150509250929050565b600060208284031215611d8657600080fd5b6000611d9484828501611ca7565b91505092915050565b600060208284031215611daf57600080fd5b6000611dbd84828501611cd1565b91505092915050565b60008060408385031215611dd957600080fd5b6000611de785828601611cbc565b9250506020611df885828601611c7d565b9150509250929050565b600080600060608486031215611e1757600080fd5b6000611e2586828701611cbc565b9350506020611e3686828701611c7d565b9250506040611e4786828701611c7d565b9150509250925092565b60008060408385031215611e6457600080fd5b6000611e7285828601611cbc565b9250506020611e8385828601611cbc565b9150509250929050565b600080600060608486031215611ea257600080fd5b6000611eb086828701611cbc565b9350506020611ec186828701611cbc565b9250506040611ed286828701611cbc565b9150509250925092565b60008060008060808587031215611ef257600080fd5b6000611f0087828801611cbc565b9450506020611f1187828801611cbc565b9350506040611f2287828801611cbc565b9250506060611f3387828801611cbc565b91505092959194509250565b600080600080600060a08688031215611f5757600080fd5b6000611f6588828901611cbc565b9550506020611f7688828901611cbc565b9450506040611f8788828901611cbc565b9350506060611f9888828901611cbc565b9250506080611fa988828901611cbc565b9150509295509295909350565b611fbf81612292565b82525050565b611fce81612292565b82525050565b6000611fe160098361216c565b9150611fec8261233e565b602082019050919050565b600061200460038361216c565b915061200f82612367565b602082019050919050565b610100820160008201516120316000850182611fb6565b5060208201516120446020850182611fb6565b50604082015161205760408501826120bc565b50606082015161206a60608501826120bc565b50608082015161207d60808501826120bc565b5060a082015161209060a08501826120bc565b5060c08201516120a360c08501826120bc565b5060e08201516120b660e08501826120bc565b50505050565b6120c5816122d6565b82525050565b6120d4816122d6565b82525050565b60006020820190506120ef6000830184611fc5565b92915050565b6000602082019050818103600083015261210e81611fd4565b9050919050565b6000602082019050818103600083015261212e81611ff7565b9050919050565b60006101008201905061214b600083018461201a565b92915050565b600060208201905061216660008301846120cb565b92915050565b600082825260208201905092915050565b6000612188826122d6565b9150612193836122d6565b9250827fffffffffffffffffffffffffffffffffffffffffffffffffffffffffffffffff038211156121c8576121c76122e0565b5b828201905092915050565b60006121de826122d6565b91506121e9836122d6565b9250826121f9576121f861230f565b5b828204905092915050565b600061220f826122d6565b915061221a836122d6565b9250817fffffffffffffffffffffffffffffffffffffffffffffffffffffffffffffffff0483118215151615612253576122526122e0565b5b828202905092915050565b6000612269826122d6565b9150612274836122d6565b925082821015612287576122866122e0565b5b828203905092915050565b600061229d826122b6565b9050919050565b60006122af82612292565b9050919050565b600073ffffffffffffffffffffffffffffffffffffffff82169050919050565b6000819050919050565b7f4e487b7100000000000000000000000000000000000000000000000000000000600052601160045260246000fd5b7f4e487b7100000000000000000000000000000000000000000000000000000000600052601260045260246000fd5b7f214449564953494f4e0000000000000000000000000000000000000000000000600082015250565b7f2162700000000000000000000000000000000000000000000000000000000000600082015250565b61239981612292565b81146123a457600080fd5b50565b6123b0816122a4565b81146123bb57600080fd5b50565b6123c7816122d6565b81146123d257600080fd5b5056fea264697066735822122004f7998c1350a588f49307811be4990136953f4e2e66b3421d0042cfa2f02b1364736f6c63430008030033",
  "linkReferences": {},
  "deployedLinkReferences": {}
}