{
  "_format": "hh-sol-artifact-1",
  "contractName": "SpartanSwapUtils",
  "sourceName": "contracts/DApp/SpartanSwap-Utils.sol",
  "abi": [
    {
      "inputs": [
        {
          "internalType": "address",
          "name": "_spartaAddr",
          "type": "address"
        },
        {
          "internalType": "address",
          "name": "_wbnb",
          "type": "address"
        }
      ],
      "stateMutability": "nonpayable",
      "type": "constructor"
    },
    {
      "inputs": [],
      "name": "SPARTA",
      "outputs": [
        {
          "internalType": "address",
          "name": "",
          "type": "address"
        }
      ],
      "stateMutability": "view",
      "type": "function"
    },
    {
      "inputs": [],
      "name": "WBNB",
      "outputs": [
        {
          "internalType": "address",
          "name": "",
          "type": "address"
        }
      ],
      "stateMutability": "view",
      "type": "function"
    },
    {
      "inputs": [],
      "name": "getCuratedPools",
      "outputs": [
        {
          "internalType": "address[]",
          "name": "",
          "type": "address[]"
        }
      ],
      "stateMutability": "view",
      "type": "function"
    },
    {
      "inputs": [],
      "name": "getDaoAddr",
      "outputs": [
        {
          "internalType": "address",
          "name": "",
          "type": "address"
        }
      ],
      "stateMutability": "view",
      "type": "function"
    },
    {
      "inputs": [],
      "name": "getDaoInt",
      "outputs": [
        {
          "internalType": "contract iDAO",
          "name": "",
          "type": "address"
        }
      ],
      "stateMutability": "view",
      "type": "function"
    },
    {
      "inputs": [],
      "name": "getGlobalDetails",
      "outputs": [
        {
          "components": [
            {
              "internalType": "bool",
              "name": "emitting",
              "type": "bool"
            },
            {
              "internalType": "bool",
              "name": "emissions",
              "type": "bool"
            },
            {
              "internalType": "bool",
              "name": "globalFreeze",
              "type": "bool"
            },
            {
              "internalType": "uint256",
              "name": "totalSupply",
              "type": "uint256"
            },
            {
              "internalType": "uint256",
              "name": "secondsPerEra",
              "type": "uint256"
            },
            {
              "internalType": "uint256",
              "name": "deadSupply",
              "type": "uint256"
            },
            {
              "internalType": "uint256",
              "name": "spartaBalance",
              "type": "uint256"
            }
          ],
          "internalType": "struct SpartanSwapUtils.GlobalDetails[]",
          "name": "returnData",
          "type": "tuple[]"
        }
      ],
      "stateMutability": "view",
      "type": "function"
    },
    {
      "inputs": [],
      "name": "getListedTokens",
      "outputs": [
        {
          "internalType": "address[]",
          "name": "",
          "type": "address[]"
        }
      ],
      "stateMutability": "view",
      "type": "function"
    },
    {
      "inputs": [
        {
          "internalType": "address",
          "name": "userAddr",
          "type": "address"
        },
        {
          "internalType": "address[]",
          "name": "tokens",
          "type": "address[]"
        }
      ],
      "name": "getPoolDetails",
      "outputs": [
        {
          "components": [
            {
              "internalType": "bool",
              "name": "frozen",
              "type": "bool"
            },
            {
              "internalType": "uint256",
              "name": "genesis",
              "type": "uint256"
            },
            {
              "internalType": "uint256",
              "name": "lastStirred",
              "type": "uint256"
            },
            {
              "internalType": "uint256",
              "name": "baseAmount",
              "type": "uint256"
            },
            {
              "internalType": "uint256",
              "name": "tokenAmount",
              "type": "uint256"
            },
            {
              "internalType": "uint256",
              "name": "poolUnits",
              "type": "uint256"
            },
            {
              "internalType": "uint256",
              "name": "synthCap",
              "type": "uint256"
            },
            {
              "internalType": "uint256",
              "name": "baseCap",
              "type": "uint256"
            },
            {
              "internalType": "uint256",
              "name": "balance",
              "type": "uint256"
            },
            {
              "internalType": "uint256",
              "name": "oldRate",
              "type": "uint256"
            },
            {
              "internalType": "uint256",
              "name": "stirRate",
              "type": "uint256"
            },
            {
              "internalType": "address",
              "name": "poolAddress",
              "type": "address"
            }
          ],
          "internalType": "struct SpartanSwapUtils.PoolDetails[]",
          "name": "returnData",
          "type": "tuple[]"
        }
      ],
      "stateMutability": "view",
      "type": "function"
    },
    {
      "inputs": [],
      "name": "getPoolFactoryAddr",
      "outputs": [
        {
          "internalType": "address",
          "name": "",
          "type": "address"
        }
      ],
      "stateMutability": "view",
      "type": "function"
    },
    {
      "inputs": [],
      "name": "getPoolFactoryInt",
      "outputs": [
        {
          "internalType": "contract iPOOLFACTORY",
          "name": "",
          "type": "address"
        }
      ],
      "stateMutability": "view",
      "type": "function"
    },
    {
      "inputs": [],
      "name": "getReserveAddr",
      "outputs": [
        {
          "internalType": "address",
          "name": "",
          "type": "address"
        }
      ],
      "stateMutability": "view",
      "type": "function"
    },
    {
      "inputs": [],
      "name": "getReserveInt",
      "outputs": [
        {
          "internalType": "contract iRESERVE",
          "name": "",
          "type": "address"
        }
      ],
      "stateMutability": "view",
      "type": "function"
    },
    {
      "inputs": [
        {
          "internalType": "address",
          "name": "userAddr",
          "type": "address"
        },
        {
          "internalType": "address[]",
          "name": "tokens",
          "type": "address[]"
        }
      ],
      "name": "getTokenDetails",
      "outputs": [
        {
          "components": [
            {
              "internalType": "uint256",
              "name": "decimals",
              "type": "uint256"
            },
            {
              "internalType": "uint256",
              "name": "balance",
              "type": "uint256"
            },
            {
              "internalType": "string",
              "name": "symbol",
              "type": "string"
            }
          ],
          "internalType": "struct SpartanSwapUtils.TokenDetails[]",
          "name": "returnData",
          "type": "tuple[]"
        }
      ],
      "stateMutability": "view",
      "type": "function"
    },
    {
      "inputs": [
        {
          "internalType": "bytes[]",
          "name": "data",
          "type": "bytes[]"
        }
      ],
      "name": "multicall",
      "outputs": [
        {
          "internalType": "bytes[]",
          "name": "results",
          "type": "bytes[]"
        }
      ],
      "stateMutability": "nonpayable",
      "type": "function"
    }
  ],
  "bytecode": "0x60c06040523480156200001157600080fd5b5060405162002dcc38038062002dcc8339818101604052810190620000379190620000c4565b8173ffffffffffffffffffffffffffffffffffffffff1660808173ffffffffffffffffffffffffffffffffffffffff1660601b815250508073ffffffffffffffffffffffffffffffffffffffff1660a08173ffffffffffffffffffffffffffffffffffffffff1660601b81525050505062000153565b600081519050620000be8162000139565b92915050565b60008060408385031215620000d857600080fd5b6000620000e885828601620000ad565b9250506020620000fb85828601620000ad565b9150509250929050565b6000620001128262000119565b9050919050565b600073ffffffffffffffffffffffffffffffffffffffff82169050919050565b620001448162000105565b81146200015057600080fd5b50565b60805160601c60a05160601c612c1c620001b060003960008181610ab401526116610152600081816102cb015281816102f10152818161058501528181610632015281816106d90152818161078001526108c80152612c1c6000f3fe608060405234801561001057600080fd5b50600436106100ea5760003560e01c806369ebdf8f1161008c578063ac9650d811610066578063ac9650d81461021b578063c696a4231461024b578063e10fb9d91461027b578063edc01fd8146102ab576100ea565b806369ebdf8f146101c15780638dd95002146101df578063aa4efadf146101fd576100ea565b80632ba996a5116100c85780632ba996a51461014957806330df815914610167578063389b7b5b1461018557806364e258e4146101a3576100ea565b806307c54b49146100ef5780630af04f981461010d5780631f4d5b001461012b575b600080fd5b6100f76102c9565b6040516101049190612595565b60405180910390f35b6101156102ed565b6040516101229190612595565b60405180910390f35b610133610392565b6040516101409190612595565b60405180910390f35b61015161041e565b60405161015e91906125b0565b60405180910390f35b61016f6104af565b60405161017c919061265a565b60405180910390f35b61018d6104be565b60405161019a91906125f4565b60405180910390f35b6101ab610a17565b6040516101b89190612690565b60405180910390f35b6101c9610a26565b6040516101d69190612595565b60405180910390f35b6101e7610ab2565b6040516101f49190612595565b60405180910390f35b610205610ad6565b6040516102129190612675565b60405180910390f35b61023560048036038101906102309190611ecc565b610ae5565b60405161024291906125d2565b60405180910390f35b61026560048036038101906102609190611e33565b610c63565b6040516102729190612616565b60405180910390f35b61029560048036038101906102909190611e33565b61147e565b6040516102a29190612638565b60405180910390f35b6102b36118f4565b6040516102c091906125b0565b60405180910390f35b7f000000000000000000000000000000000000000000000000000000000000000081565b60007f000000000000000000000000000000000000000000000000000000000000000073ffffffffffffffffffffffffffffffffffffffff166398fabd3a6040518163ffffffff1660e01b815260040160206040518083038186803b15801561035557600080fd5b505afa158015610369573d6000803e3d6000fd5b505050506040513d601f19601f8201168201806040525081019061038d9190611e0a565b905090565b600061039c6104af565b73ffffffffffffffffffffffffffffffffffffffff1663b99b0a0c6040518163ffffffff1660e01b815260040160206040518083038186803b1580156103e157600080fd5b505afa1580156103f5573d6000803e3d6000fd5b505050506040513d601f19601f820116820180604052508101906104199190611e0a565b905090565b6060610428610ad6565b73ffffffffffffffffffffffffffffffffffffffff1663cf3abaf16040518163ffffffff1660e01b815260040160006040518083038186803b15801561046d57600080fd5b505afa158015610481573d6000803e3d6000fd5b505050506040513d6000823e3d601f19601f820116820180604052508101906104aa9190611e8b565b905090565b60006104b96102ed565b905090565b6060600167ffffffffffffffff811115610501577f4e487b7100000000000000000000000000000000000000000000000000000000600052604160045260246000fd5b60405190808252806020026020018201604052801561053a57816020015b610527611b09565b81526020019060019003908161051f5790505b509050600081600081518110610579577f4e487b7100000000000000000000000000000000000000000000000000000000600052603260045260246000fd5b602002602001015190507f000000000000000000000000000000000000000000000000000000000000000073ffffffffffffffffffffffffffffffffffffffff16630781f4d26040518163ffffffff1660e01b815260040160206040518083038186803b1580156105e957600080fd5b505afa1580156105fd573d6000803e3d6000fd5b505050506040513d601f19601f820116820180604052508101906106219190611f11565b8160000190151590811515815250507f000000000000000000000000000000000000000000000000000000000000000073ffffffffffffffffffffffffffffffffffffffff166318160ddd6040518163ffffffff1660e01b815260040160206040518083038186803b15801561069657600080fd5b505afa1580156106aa573d6000803e3d6000fd5b505050506040513d601f19601f820116820180604052508101906106ce9190611f7b565b8160600181815250507f000000000000000000000000000000000000000000000000000000000000000073ffffffffffffffffffffffffffffffffffffffff16636b92a3b66040518163ffffffff1660e01b815260040160206040518083038186803b15801561073d57600080fd5b505afa158015610751573d6000803e3d6000fd5b505050506040513d601f19601f820116820180604052508101906107759190611f7b565b8160800181815250507f000000000000000000000000000000000000000000000000000000000000000073ffffffffffffffffffffffffffffffffffffffff166370a0823161dead6040518263ffffffff1660e01b81526004016107d99190612595565b60206040518083038186803b1580156107f157600080fd5b505afa158015610805573d6000803e3d6000fd5b505050506040513d601f19601f820116820180604052508101906108299190611f7b565b8160a001818152505061083a610a17565b73ffffffffffffffffffffffffffffffffffffffff16632267716c6040518163ffffffff1660e01b815260040160206040518083038186803b15801561087f57600080fd5b505afa158015610893573d6000803e3d6000fd5b505050506040513d601f19601f820116820180604052508101906108b79190611f11565b8160200190151590811515815250507f000000000000000000000000000000000000000000000000000000000000000073ffffffffffffffffffffffffffffffffffffffff166370a0823161090a610a26565b6040518263ffffffff1660e01b81526004016109269190612595565b60206040518083038186803b15801561093e57600080fd5b505afa158015610952573d6000803e3d6000fd5b505050506040513d601f19601f820116820180604052508101906109769190611f7b565b8160c0018181525050610987610a17565b73ffffffffffffffffffffffffffffffffffffffff1663194e22ce6040518163ffffffff1660e01b815260040160206040518083038186803b1580156109cc57600080fd5b505afa1580156109e0573d6000803e3d6000fd5b505050506040513d601f19601f82011682018060405250810190610a049190611f11565b8160400190151590811515815250505090565b6000610a21610a26565b905090565b6000610a306104af565b73ffffffffffffffffffffffffffffffffffffffff16639d2cc4366040518163ffffffff1660e01b815260040160206040518083038186803b158015610a7557600080fd5b505afa158015610a89573d6000803e3d6000fd5b505050506040513d601f19601f82011682018060405250810190610aad9190611e0a565b905090565b7f000000000000000000000000000000000000000000000000000000000000000081565b6000610ae0610392565b905090565b60608282905067ffffffffffffffff811115610b2a577f4e487b7100000000000000000000000000000000000000000000000000000000600052604160045260246000fd5b604051908082528060200260200182016040528015610b5d57816020015b6060815260200190600190039081610b485790505b50905060005b83839050811015610c5c57610c0530858584818110610bab577f4e487b7100000000000000000000000000000000000000000000000000000000600052603260045260246000fd5b9050602002810190610bbd91906126ed565b8080601f016020809104026020016040519081016040528093929190818152602001838380828437600081840152601f19601f82011690508083019250505050505050611985565b828281518110610c3e577f4e487b7100000000000000000000000000000000000000000000000000000000600052603260045260246000fd5b60200260200101819052508080610c5490612a5c565b915050610b63565b5092915050565b606060008383905090508067ffffffffffffffff811115610cad577f4e487b7100000000000000000000000000000000000000000000000000000000600052604160045260246000fd5b604051908082528060200260200182016040528015610ce657816020015b610cd3611b4c565b815260200190600190039081610ccb5790505b50915060005b81811015611475576000838281518110610d2f577f4e487b7100000000000000000000000000000000000000000000000000000000600052603260045260246000fd5b602002602001015190506000610d43610ad6565b73ffffffffffffffffffffffffffffffffffffffff1663bbe4f6db888886818110610d97577f4e487b7100000000000000000000000000000000000000000000000000000000600052603260045260246000fd5b9050602002016020810190610dac9190611de1565b6040518263ffffffff1660e01b8152600401610dc89190612595565b60206040518083038186803b158015610de057600080fd5b505afa158015610df4573d6000803e3d6000fd5b505050506040513d601f19601f82011682018060405250810190610e189190611e0a565b90508082610160019073ffffffffffffffffffffffffffffffffffffffff16908173ffffffffffffffffffffffffffffffffffffffff16815250508073ffffffffffffffffffffffffffffffffffffffff166362a5af3b6040518163ffffffff1660e01b815260040160206040518083038186803b158015610e9957600080fd5b505afa158015610ead573d6000803e3d6000fd5b505050506040513d601f19601f82011682018060405250810190610ed19190611f11565b8260000190151590811515815250508073ffffffffffffffffffffffffffffffffffffffff1663a7f0b3de6040518163ffffffff1660e01b815260040160206040518083038186803b158015610f2657600080fd5b505afa158015610f3a573d6000803e3d6000fd5b505050506040513d601f19601f82011682018060405250810190610f5e9190611f7b565b8260200181815250508073ffffffffffffffffffffffffffffffffffffffff1662aea7456040518163ffffffff1660e01b815260040160206040518083038186803b158015610fac57600080fd5b505afa158015610fc0573d6000803e3d6000fd5b505050506040513d601f19601f82011682018060405250810190610fe49190611f7b565b8260400181815250508073ffffffffffffffffffffffffffffffffffffffff16634864d1406040518163ffffffff1660e01b815260040160206040518083038186803b15801561103357600080fd5b505afa158015611047573d6000803e3d6000fd5b505050506040513d601f19601f8201168201806040525081019061106b9190611f7b565b8260600181815250508073ffffffffffffffffffffffffffffffffffffffff1663eec7faa16040518163ffffffff1660e01b815260040160206040518083038186803b1580156110ba57600080fd5b505afa1580156110ce573d6000803e3d6000fd5b505050506040513d601f19601f820116820180604052508101906110f29190611f7b565b8260800181815250508073ffffffffffffffffffffffffffffffffffffffff166318160ddd6040518163ffffffff1660e01b815260040160206040518083038186803b15801561114157600080fd5b505afa158015611155573d6000803e3d6000fd5b505050506040513d601f19601f820116820180604052508101906111799190611f7b565b8260a00181815250508073ffffffffffffffffffffffffffffffffffffffff166333ca78e46040518163ffffffff1660e01b815260040160206040518083038186803b1580156111c857600080fd5b505afa1580156111dc573d6000803e3d6000fd5b505050506040513d601f19601f820116820180604052508101906112009190611f7b565b8260c00181815250508073ffffffffffffffffffffffffffffffffffffffff1663cbbcf8026040518163ffffffff1660e01b815260040160206040518083038186803b15801561124f57600080fd5b505afa158015611263573d6000803e3d6000fd5b505050506040513d601f19601f820116820180604052508101906112879190611f7b565b8260e0018181525050600073ffffffffffffffffffffffffffffffffffffffff168873ffffffffffffffffffffffffffffffffffffffff1614611358578073ffffffffffffffffffffffffffffffffffffffff166370a08231896040518263ffffffff1660e01b81526004016112fd9190612595565b60206040518083038186803b15801561131557600080fd5b505afa158015611329573d6000803e3d6000fd5b505050506040513d601f19601f8201168201806040525081019061134d9190611f7b565b826101000181815250505b8073ffffffffffffffffffffffffffffffffffffffff1663a861ad296040518163ffffffff1660e01b815260040160206040518083038186803b15801561139e57600080fd5b505afa1580156113b2573d6000803e3d6000fd5b505050506040513d601f19601f820116820180604052508101906113d69190611f7b565b826101200181815250508073ffffffffffffffffffffffffffffffffffffffff166350f9844a6040518163ffffffff1660e01b815260040160206040518083038186803b15801561142657600080fd5b505afa15801561143a573d6000803e3d6000fd5b505050506040513d601f19601f8201168201806040525081019061145e9190611f7b565b826101400181815250508260010192505050610cec565b50509392505050565b606060008383905090508067ffffffffffffffff8111156114c8577f4e487b7100000000000000000000000000000000000000000000000000000000600052604160045260246000fd5b60405190808252806020026020018201604052801561150157816020015b6114ee611bc5565b8152602001906001900390816114e65790505b50915060005b818110156118eb57600083828151811061154a577f4e487b7100000000000000000000000000000000000000000000000000000000600052603260045260246000fd5b6020026020010151905085858381811061158d577f4e487b7100000000000000000000000000000000000000000000000000000000600052603260045260246000fd5b90506020020160208101906115a29190611de1565b73ffffffffffffffffffffffffffffffffffffffff1663313ce5676040518163ffffffff1660e01b815260040160206040518083038186803b1580156115e757600080fd5b505afa1580156115fb573d6000803e3d6000fd5b505050506040513d601f19601f8201168201806040525081019061161f9190611fa4565b60ff16816000018181525050600073ffffffffffffffffffffffffffffffffffffffff168773ffffffffffffffffffffffffffffffffffffffff1614611807577f000000000000000000000000000000000000000000000000000000000000000073ffffffffffffffffffffffffffffffffffffffff168686848181106116cf577f4e487b7100000000000000000000000000000000000000000000000000000000600052603260045260246000fd5b90506020020160208101906116e49190611de1565b73ffffffffffffffffffffffffffffffffffffffff161415611726578673ffffffffffffffffffffffffffffffffffffffff1631816020018181525050611806565b85858381811061175f577f4e487b7100000000000000000000000000000000000000000000000000000000600052603260045260246000fd5b90506020020160208101906117749190611de1565b73ffffffffffffffffffffffffffffffffffffffff166370a08231886040518263ffffffff1660e01b81526004016117ac9190612595565b60206040518083038186803b1580156117c457600080fd5b505afa1580156117d8573d6000803e3d6000fd5b505050506040513d601f19601f820116820180604052508101906117fc9190611f7b565b8160200181815250505b5b858583818110611840577f4e487b7100000000000000000000000000000000000000000000000000000000600052603260045260246000fd5b90506020020160208101906118559190611de1565b73ffffffffffffffffffffffffffffffffffffffff166395d89b416040518163ffffffff1660e01b815260040160006040518083038186803b15801561189a57600080fd5b505afa1580156118ae573d6000803e3d6000fd5b505050506040513d6000823e3d601f19601f820116820180604052508101906118d79190611f3a565b816040018190525081600101915050611507565b50509392505050565b60606118fe610ad6565b73ffffffffffffffffffffffffffffffffffffffff1663abc764da6040518163ffffffff1660e01b815260040160006040518083038186803b15801561194357600080fd5b505afa158015611957573d6000803e3d6000fd5b505050506040513d6000823e3d601f19601f820116820180604052508101906119809190611e8b565b905090565b60606119aa8383604051806060016040528060278152602001612bc0602791396119b2565b905092915050565b60606119bd84611a7f565b6119fc576040517f08c379a00000000000000000000000000000000000000000000000000000000081526004016119f3906126cd565b60405180910390fd5b6000808573ffffffffffffffffffffffffffffffffffffffff1685604051611a24919061257e565b600060405180830381855af49150503d8060008114611a5f576040519150601f19603f3d011682016040523d82523d6000602084013e611a64565b606091505b5091509150611a74828286611aa2565b925050509392505050565b6000808273ffffffffffffffffffffffffffffffffffffffff163b119050919050565b60608315611ab257829050611b02565b600083511115611ac55782518084602001fd5b816040517f08c379a0000000000000000000000000000000000000000000000000000000008152600401611af991906126ab565b60405180910390fd5b9392505050565b6040518060e00160405280600015158152602001600015158152602001600015158152602001600081526020016000815260200160008152602001600081525090565b60405180610180016040528060001515815260200160008152602001600081526020016000815260200160008152602001600081526020016000815260200160008152602001600081526020016000815260200160008152602001600073ffffffffffffffffffffffffffffffffffffffff1681525090565b60405180606001604052806000815260200160008152602001606081525090565b6000611bf9611bf484612769565b612744565b90508083825260208201905082856020860282011115611c1857600080fd5b60005b85811015611c485781611c2e8882611ca5565b845260208401935060208301925050600181019050611c1b565b5050509392505050565b6000611c65611c6084612795565b612744565b905082815260208101848484011115611c7d57600080fd5b611c888482856129f8565b509392505050565b600081359050611c9f81612b63565b92915050565b600081519050611cb481612b63565b92915050565b60008083601f840112611ccc57600080fd5b8235905067ffffffffffffffff811115611ce557600080fd5b602083019150836020820283011115611cfd57600080fd5b9250929050565b600082601f830112611d1557600080fd5b8151611d25848260208601611be6565b91505092915050565b60008083601f840112611d4057600080fd5b8235905067ffffffffffffffff811115611d5957600080fd5b602083019150836020820283011115611d7157600080fd5b9250929050565b600081519050611d8781612b7a565b92915050565b600082601f830112611d9e57600080fd5b8151611dae848260208601611c52565b91505092915050565b600081519050611dc681612b91565b92915050565b600081519050611ddb81612ba8565b92915050565b600060208284031215611df357600080fd5b6000611e0184828501611c90565b91505092915050565b600060208284031215611e1c57600080fd5b6000611e2a84828501611ca5565b91505092915050565b600080600060408486031215611e4857600080fd5b6000611e5686828701611c90565b935050602084013567ffffffffffffffff811115611e7357600080fd5b611e7f86828701611cba565b92509250509250925092565b600060208284031215611e9d57600080fd5b600082015167ffffffffffffffff811115611eb757600080fd5b611ec384828501611d04565b91505092915050565b60008060208385031215611edf57600080fd5b600083013567ffffffffffffffff811115611ef957600080fd5b611f0585828601611d2e565b92509250509250929050565b600060208284031215611f2357600080fd5b6000611f3184828501611d78565b91505092915050565b600060208284031215611f4c57600080fd5b600082015167ffffffffffffffff811115611f6657600080fd5b611f7284828501611d8d565b91505092915050565b600060208284031215611f8d57600080fd5b6000611f9b84828501611db7565b91505092915050565b600060208284031215611fb657600080fd5b6000611fc484828501611dcc565b91505092915050565b6000611fd9838361203e565b60208301905092915050565b6000611ff1838361226f565b905092915050565b6000612005838361239b565b60e08301905092915050565b600061201d8383612429565b6101808301905092915050565b6000612036838361251f565b905092915050565b61204781612937565b82525050565b61205681612937565b82525050565b600061206782612816565b61207181856128a4565b935061207c836127c6565b8060005b838110156120ad5781516120948882611fcd565b975061209f83612863565b925050600181019050612080565b5085935050505092915050565b60006120c582612821565b6120cf81856128b5565b9350836020820285016120e1856127d6565b8060005b8581101561211d57848403895281516120fe8582611fe5565b945061210983612870565b925060208a019950506001810190506120e5565b50829750879550505050505092915050565b600061213a8261282c565b61214481856128c6565b935061214f836127e6565b8060005b838110156121805781516121678882611ff9565b97506121728361287d565b925050600181019050612153565b5085935050505092915050565b600061219882612837565b6121a281856128d7565b93506121ad836127f6565b8060005b838110156121de5781516121c58882612011565b97506121d08361288a565b9250506001810190506121b1565b5085935050505092915050565b60006121f682612842565b61220081856128e8565b93508360208202850161221285612806565b8060005b8581101561224e578484038952815161222f858261202a565b945061223a83612897565b925060208a01995050600181019050612216565b50829750879550505050505092915050565b61226981612949565b82525050565b600061227a8261284d565b61228481856128f9565b93506122948185602086016129f8565b61229d81612b03565b840191505092915050565b60006122b38261284d565b6122bd818561290a565b93506122cd8185602086016129f8565b80840191505092915050565b6122e28161298c565b82525050565b6122f1816129b0565b82525050565b612300816129d4565b82525050565b600061231182612858565b61231b8185612915565b935061232b8185602086016129f8565b61233481612b03565b840191505092915050565b600061234a82612858565b6123548185612926565b93506123648185602086016129f8565b61236d81612b03565b840191505092915050565b6000612385602683612926565b915061239082612b14565b604082019050919050565b60e0820160008201516123b16000850182612260565b5060208201516123c46020850182612260565b5060408201516123d76040850182612260565b5060608201516123ea606085018261256f565b5060808201516123fd608085018261256f565b5060a082015161241060a085018261256f565b5060c082015161242360c085018261256f565b50505050565b610180820160008201516124406000850182612260565b506020820151612453602085018261256f565b506040820151612466604085018261256f565b506060820151612479606085018261256f565b50608082015161248c608085018261256f565b5060a082015161249f60a085018261256f565b5060c08201516124b260c085018261256f565b5060e08201516124c560e085018261256f565b506101008201516124da61010085018261256f565b506101208201516124ef61012085018261256f565b5061014082015161250461014085018261256f565b5061016082015161251961016085018261203e565b50505050565b6000606083016000830151612537600086018261256f565b50602083015161254a602086018261256f565b50604083015184820360408601526125628282612306565b9150508091505092915050565b61257881612975565b82525050565b600061258a82846122a8565b915081905092915050565b60006020820190506125aa600083018461204d565b92915050565b600060208201905081810360008301526125ca818461205c565b905092915050565b600060208201905081810360008301526125ec81846120ba565b905092915050565b6000602082019050818103600083015261260e818461212f565b905092915050565b60006020820190508181036000830152612630818461218d565b905092915050565b6000602082019050818103600083015261265281846121eb565b905092915050565b600060208201905061266f60008301846122d9565b92915050565b600060208201905061268a60008301846122e8565b92915050565b60006020820190506126a560008301846122f7565b92915050565b600060208201905081810360008301526126c5818461233f565b905092915050565b600060208201905081810360008301526126e681612378565b9050919050565b6000808335600160200384360303811261270657600080fd5b80840192508235915067ffffffffffffffff82111561272457600080fd5b60208301925060018202360383131561273c57600080fd5b509250929050565b600061274e61275f565b905061275a8282612a2b565b919050565b6000604051905090565b600067ffffffffffffffff82111561278457612783612ad4565b5b602082029050602081019050919050565b600067ffffffffffffffff8211156127b0576127af612ad4565b5b6127b982612b03565b9050602081019050919050565b6000819050602082019050919050565b6000819050602082019050919050565b6000819050602082019050919050565b6000819050602082019050919050565b6000819050602082019050919050565b600081519050919050565b600081519050919050565b600081519050919050565b600081519050919050565b600081519050919050565b600081519050919050565b600081519050919050565b6000602082019050919050565b6000602082019050919050565b6000602082019050919050565b6000602082019050919050565b6000602082019050919050565b600082825260208201905092915050565b600082825260208201905092915050565b600082825260208201905092915050565b600082825260208201905092915050565b600082825260208201905092915050565b600082825260208201905092915050565b600081905092915050565b600082825260208201905092915050565b600082825260208201905092915050565b600061294282612955565b9050919050565b60008115159050919050565b600073ffffffffffffffffffffffffffffffffffffffff82169050919050565b6000819050919050565b600060ff82169050919050565b60006129978261299e565b9050919050565b60006129a982612955565b9050919050565b60006129bb826129c2565b9050919050565b60006129cd82612955565b9050919050565b60006129df826129e6565b9050919050565b60006129f182612955565b9050919050565b60005b83811015612a165780820151818401526020810190506129fb565b83811115612a25576000848401525b50505050565b612a3482612b03565b810181811067ffffffffffffffff82111715612a5357612a52612ad4565b5b80604052505050565b6000612a6782612975565b91507fffffffffffffffffffffffffffffffffffffffffffffffffffffffffffffffff821415612a9a57612a99612aa5565b5b600182019050919050565b7f4e487b7100000000000000000000000000000000000000000000000000000000600052601160045260246000fd5b7f4e487b7100000000000000000000000000000000000000000000000000000000600052604160045260246000fd5b6000601f19601f8301169050919050565b7f416464726573733a2064656c65676174652063616c6c20746f206e6f6e2d636f60008201527f6e74726163740000000000000000000000000000000000000000000000000000602082015250565b612b6c81612937565b8114612b7757600080fd5b50565b612b8381612949565b8114612b8e57600080fd5b50565b612b9a81612975565b8114612ba557600080fd5b50565b612bb18161297f565b8114612bbc57600080fd5b5056fe416464726573733a206c6f772d6c6576656c2064656c65676174652063616c6c206661696c6564a2646970667358221220867ac1ae5c1a608abbeb530259f3c6524ae6d568c06e48cd0d071c9d87947e8564736f6c63430008030033",
  "linkReferences": {},
  "deployedLinkReferences": {}
}