{
  "_format": "hh-sol-artifact-1",
  "contractName": "Router",
  "sourceName": "contracts/SPv2/Router.sol",
  "abi": [
    {
      "inputs": [
        {
          "internalType": "address",
          "name": "_base",
          "type": "address"
        },
        {
          "internalType": "address",
          "name": "_wbnb",
          "type": "address"
        }
      ],
      "stateMutability": "nonpayable",
      "type": "constructor"
    },
    {
      "anonymous": false,
      "inputs": [
        {
          "indexed": false,
          "internalType": "address",
          "name": "Pool",
          "type": "address"
        },
        {
          "indexed": false,
          "internalType": "uint256",
          "name": "amount",
          "type": "uint256"
        }
      ],
      "name": "Dividend",
      "type": "event"
    },
    {
      "inputs": [
        {
          "internalType": "uint256",
          "name": "poolRTC",
          "type": "uint256"
        },
        {
          "internalType": "address",
          "name": "_pool",
          "type": "address"
        }
      ],
      "name": "RTC",
      "outputs": [],
      "stateMutability": "nonpayable",
      "type": "function"
    },
    {
      "inputs": [
        {
          "internalType": "address",
          "name": "oldRouter",
          "type": "address"
        }
      ],
      "name": "_migrateRevenue",
      "outputs": [],
      "stateMutability": "nonpayable",
      "type": "function"
    },
    {
      "inputs": [
        {
          "internalType": "uint256",
          "name": "inputToken",
          "type": "uint256"
        },
        {
          "internalType": "uint256",
          "name": "baseAmount",
          "type": "uint256"
        },
        {
          "internalType": "address",
          "name": "token",
          "type": "address"
        }
      ],
      "name": "addLiquidity",
      "outputs": [],
      "stateMutability": "payable",
      "type": "function"
    },
    {
      "inputs": [
        {
          "internalType": "uint256",
          "name": "input",
          "type": "uint256"
        },
        {
          "internalType": "bool",
          "name": "fromBase",
          "type": "bool"
        },
        {
          "internalType": "address",
          "name": "token",
          "type": "address"
        }
      ],
      "name": "addLiquidityAsym",
      "outputs": [],
      "stateMutability": "payable",
      "type": "function"
    },
    {
      "inputs": [
        {
          "internalType": "uint256",
          "name": "_input",
          "type": "uint256"
        },
        {
          "internalType": "bool",
          "name": "_fromBase",
          "type": "bool"
        },
        {
          "internalType": "address",
          "name": "token",
          "type": "address"
        },
        {
          "internalType": "address",
          "name": "_member",
          "type": "address"
        }
      ],
      "name": "addLiquidityAsymForMember",
      "outputs": [],
      "stateMutability": "payable",
      "type": "function"
    },
    {
      "inputs": [
        {
          "internalType": "uint256",
          "name": "inputToken",
          "type": "uint256"
        },
        {
          "internalType": "uint256",
          "name": "baseAmount",
          "type": "uint256"
        },
        {
          "internalType": "address",
          "name": "token",
          "type": "address"
        },
        {
          "internalType": "address",
          "name": "member",
          "type": "address"
        }
      ],
      "name": "addLiquidityForMember",
      "outputs": [
        {
          "internalType": "uint256",
          "name": "LPsMinted",
          "type": "uint256"
        }
      ],
      "stateMutability": "payable",
      "type": "function"
    },
    {
      "inputs": [
        {
          "internalType": "uint256",
          "name": "amount",
          "type": "uint256"
        },
        {
          "internalType": "address",
          "name": "token",
          "type": "address"
        },
        {
          "internalType": "address",
          "name": "member",
          "type": "address"
        },
        {
          "internalType": "uint256",
          "name": "minAmount",
          "type": "uint256"
        }
      ],
      "name": "buyTo",
      "outputs": [],
      "stateMutability": "nonpayable",
      "type": "function"
    },
    {
      "inputs": [
        {
          "internalType": "uint256",
          "name": "_newDiviClaim",
          "type": "uint256"
        },
        {
          "internalType": "uint256",
          "name": "_newDivFee",
          "type": "uint256"
        }
      ],
      "name": "changeDiviClaim",
      "outputs": [],
      "stateMutability": "nonpayable",
      "type": "function"
    },
    {
      "inputs": [
        {
          "internalType": "uint256",
          "name": "synthCap",
          "type": "uint256"
        },
        {
          "internalType": "address",
          "name": "_pool",
          "type": "address"
        }
      ],
      "name": "changeSynthCap",
      "outputs": [],
      "stateMutability": "nonpayable",
      "type": "function"
    },
    {
      "inputs": [],
      "name": "diviClaim",
      "outputs": [
        {
          "internalType": "uint256",
          "name": "",
          "type": "uint256"
        }
      ],
      "stateMutability": "view",
      "type": "function"
    },
    {
      "inputs": [],
      "name": "flipSynthMinting",
      "outputs": [],
      "stateMutability": "nonpayable",
      "type": "function"
    },
    {
      "inputs": [],
      "name": "lastMonth",
      "outputs": [
        {
          "internalType": "uint256",
          "name": "",
          "type": "uint256"
        }
      ],
      "stateMutability": "view",
      "type": "function"
    },
    {
      "inputs": [
        {
          "internalType": "address",
          "name": "",
          "type": "address"
        }
      ],
      "name": "mapAddress_30DayDividends",
      "outputs": [
        {
          "internalType": "uint256",
          "name": "",
          "type": "uint256"
        }
      ],
      "stateMutability": "view",
      "type": "function"
    },
    {
      "inputs": [
        {
          "internalType": "address",
          "name": "",
          "type": "address"
        }
      ],
      "name": "mapAddress_Past30DayPoolDividends",
      "outputs": [
        {
          "internalType": "uint256",
          "name": "",
          "type": "uint256"
        }
      ],
      "stateMutability": "view",
      "type": "function"
    },
    {
      "inputs": [],
      "name": "minDiv",
      "outputs": [
        {
          "internalType": "uint256",
          "name": "",
          "type": "uint256"
        }
      ],
      "stateMutability": "view",
      "type": "function"
    },
    {
      "inputs": [],
      "name": "purgeDeployer",
      "outputs": [],
      "stateMutability": "nonpayable",
      "type": "function"
    },
    {
      "inputs": [
        {
          "internalType": "uint256",
          "name": "units",
          "type": "uint256"
        },
        {
          "internalType": "address",
          "name": "token",
          "type": "address"
        }
      ],
      "name": "removeLiquidityExact",
      "outputs": [],
      "stateMutability": "nonpayable",
      "type": "function"
    },
    {
      "inputs": [
        {
          "internalType": "uint256",
          "name": "units",
          "type": "uint256"
        },
        {
          "internalType": "bool",
          "name": "toBase",
          "type": "bool"
        },
        {
          "internalType": "address",
          "name": "token",
          "type": "address"
        }
      ],
      "name": "removeLiquidityExactAsym",
      "outputs": [],
      "stateMutability": "nonpayable",
      "type": "function"
    },
    {
      "inputs": [
        {
          "internalType": "uint256",
          "name": "amount",
          "type": "uint256"
        },
        {
          "internalType": "address",
          "name": "token",
          "type": "address"
        },
        {
          "internalType": "address",
          "name": "member",
          "type": "address"
        },
        {
          "internalType": "uint256",
          "name": "minAmount",
          "type": "uint256"
        },
        {
          "internalType": "bool",
          "name": "yesDiv",
          "type": "bool"
        }
      ],
      "name": "sellTo",
      "outputs": [
        {
          "internalType": "uint256",
          "name": "",
          "type": "uint256"
        }
      ],
      "stateMutability": "payable",
      "type": "function"
    },
    {
      "inputs": [
        {
          "internalType": "uint256",
          "name": "inputAmount",
          "type": "uint256"
        },
        {
          "internalType": "address",
          "name": "fromToken",
          "type": "address"
        },
        {
          "internalType": "address",
          "name": "toToken",
          "type": "address"
        },
        {
          "internalType": "uint256",
          "name": "minAmount",
          "type": "uint256"
        }
      ],
      "name": "swap",
      "outputs": [],
      "stateMutability": "payable",
      "type": "function"
    },
    {
      "inputs": [
        {
          "internalType": "uint256",
          "name": "inputAmount",
          "type": "uint256"
        },
        {
          "internalType": "address",
          "name": "fromToken",
          "type": "address"
        },
        {
          "internalType": "address",
          "name": "toSynth",
          "type": "address"
        }
      ],
      "name": "swapAssetToSynth",
      "outputs": [],
      "stateMutability": "payable",
      "type": "function"
    },
    {
      "inputs": [
        {
          "internalType": "uint256",
          "name": "inputAmount",
          "type": "uint256"
        },
        {
          "internalType": "address",
          "name": "fromSynth",
          "type": "address"
        },
        {
          "internalType": "address",
          "name": "toToken",
          "type": "address"
        }
      ],
      "name": "swapSynthToAsset",
      "outputs": [],
      "stateMutability": "nonpayable",
      "type": "function"
    },
    {
      "inputs": [
        {
          "internalType": "uint256",
          "name": "inputAmount",
          "type": "uint256"
        },
        {
          "internalType": "address",
          "name": "fromToken",
          "type": "address"
        },
        {
          "internalType": "address",
          "name": "toToken",
          "type": "address"
        },
        {
          "internalType": "address",
          "name": "member",
          "type": "address"
        },
        {
          "internalType": "uint256",
          "name": "minAmount",
          "type": "uint256"
        }
      ],
      "name": "swapTo",
      "outputs": [],
      "stateMutability": "payable",
      "type": "function"
    },
    {
      "inputs": [
        {
          "internalType": "address",
          "name": "_pool",
          "type": "address"
        },
        {
          "internalType": "uint256",
          "name": "amount",
          "type": "uint256"
        }
      ],
      "name": "syncPool",
      "outputs": [],
      "stateMutability": "nonpayable",
      "type": "function"
    },
    {
      "inputs": [],
      "name": "synthMinting",
      "outputs": [
        {
          "internalType": "bool",
          "name": "",
          "type": "bool"
        }
      ],
      "stateMutability": "view",
      "type": "function"
    },
    {
      "inputs": [],
      "name": "updatePoolStatus",
      "outputs": [],
      "stateMutability": "nonpayable",
      "type": "function"
    },
    {
      "inputs": [
        {
          "internalType": "uint256",
          "name": "unitsInput",
          "type": "uint256"
        },
        {
          "internalType": "address",
          "name": "fromPool",
          "type": "address"
        },
        {
          "internalType": "address",
          "name": "toPool",
          "type": "address"
        }
      ],
      "name": "zapLiquidity",
      "outputs": [],
      "stateMutability": "nonpayable",
      "type": "function"
    },
    {
      "stateMutability": "payable",
      "type": "receive"
    }
  ],
  "bytecode": "0x60c06040523480156200001157600080fd5b506040516200816638038062008166833981810160405281019062000037919062000140565b60016000819055508173ffffffffffffffffffffffffffffffffffffffff1660808173ffffffffffffffffffffffffffffffffffffffff1660601b815250508073ffffffffffffffffffffffffffffffffffffffff1660a08173ffffffffffffffffffffffffffffffffffffffff1660601b815250506101f46002819055506000600560006101000a81548160ff02191690831515021790555033600160006101000a81548173ffffffffffffffffffffffffffffffffffffffff021916908373ffffffffffffffffffffffffffffffffffffffff160217905550670de0b6b3a76400006006819055505050620001cf565b6000815190506200013a81620001b5565b92915050565b600080604083850312156200015457600080fd5b6000620001648582860162000129565b9250506020620001778582860162000129565b9150509250929050565b60006200018e8262000195565b9050919050565b600073ffffffffffffffffffffffffffffffffffffffff82169050919050565b620001c08162000181565b8114620001cc57600080fd5b50565b60805160601c60a05160601c617e536200031360003960008181611077015281816124680152818161284f01528181613bf401528181614fc90152818161595f01528181615bdd01528181615c0701526167b40152600081816107cd01528181611152015281816111eb0152818161120d015281816112c3015281816112e501528181611dd701528181611e3c01528181611e5e01528181611f140152818161216b015281816121d00152818161287c015281816128a70152818161296c0152818161298d01528181612b1201528181612ba701528181612bc80152818161313c0152818161375c01528181613a3d01528181613a5e0152818161465b015281816146f0015281816147140152818161485d0152818161487f01528181614f1c015281816150820152818161580301528181615a6501526169900152617e536000f3fe6080604052600436106101a05760003560e01c8063940c4abc116100ec578063b45e1dbc1161008a578063dd845cb911610064578063dd845cb914610537578063ee85eda41461054e578063f2db620d14610579578063f48610f314610590576101a7565b8063b45e1dbc146104a8578063c8c1fb75146104d1578063cbb3a14a146104fa576101a7565b8063a1cd6aa5116100c6578063a1cd6aa51461040f578063a2cdfd3b14610438578063aa62519b14610461578063aaa20d941461047d576101a7565b8063940c4abc1461039057806399d786ca146103bb5780639ea5705a146103e6576101a7565b80633e384a951161015957806370085be01161013357806370085be0146102ff57806387b21efc1461031b5780638b697c201461033757806393cac68514610360576101a7565b80633e384a951461028a578063451918db146102a65780636325681e146102e3576101a7565b8063031a6add146101ac57806303a82138146101dc5780630e4256b0146101f35780631e2dd5151461021c57806321259fc3146102455780633173ec3c1461026e576101a7565b366101a757005b600080fd5b6101c660048036038101906101c191906172e0565b6105b9565b6040516101d391906178c2565b60405180910390f35b3480156101e857600080fd5b506101f16108cc565b005b3480156101ff57600080fd5b5061021a60048036038101906102159190617083565b610a24565b005b34801561022857600080fd5b50610243600480360381019061023e9190617357565b610ce5565b005b34801561025157600080fd5b5061026c60048036038101906102679190617031565b6114d4565b005b610288600480360381019061028391906171b7565b611a37565b005b6102a4600480360381019061029f9190617206565b612130565b005b3480156102b257600080fd5b506102cd60048036038101906102c89190617031565b612614565b6040516102da91906178c2565b60405180910390f35b6102fd60048036038101906102f891906173a6565b61262c565b005b6103196004803603810190610314919061727d565b612da7565b005b61033560048036038101906103309190617481565b612dba565b005b34801561034357600080fd5b5061035e6004803603810190610359919061717b565b612dcc565b005b61037a600480360381019061037591906174d0565b612f4f565b60405161038791906178c2565b60405180910390f35b34801561039c57600080fd5b506103a561320d565b6040516103b29190617787565b60405180910390f35b3480156103c757600080fd5b506103d0613220565b6040516103dd91906178c2565b60405180910390f35b3480156103f257600080fd5b5061040d6004803603810190610408919061717b565b613226565b005b34801561041b57600080fd5b50610436600480360381019061043191906171b7565b6133a9565b005b34801561044457600080fd5b5061045f600480360381019061045a9190617409565b613e13565b005b61047b60048036038101906104769190617357565b613fe0565b005b34801561048957600080fd5b50610492613ff1565b60405161049f91906178c2565b60405180910390f35b3480156104b457600080fd5b506104cf60048036038101906104ca91906171b7565b613ff7565b005b3480156104dd57600080fd5b506104f860048036038101906104f3919061717b565b614a6d565b005b34801561050657600080fd5b50610521600480360381019061051c9190617031565b6150bb565b60405161052e91906178c2565b60405180910390f35b34801561054357600080fd5b5061054c6150d3565b005b34801561055a57600080fd5b506105636154d1565b60405161057091906178c2565b60405180910390f35b34801561058557600080fd5b5061058e6154d7565b005b34801561059c57600080fd5b506105b760048036038101906105b2919061727d565b615617565b005b6000806105c4615a61565b73ffffffffffffffffffffffffffffffffffffffff1663b99b0a0c6040518163ffffffff1660e01b815260040160206040518083038186803b15801561060957600080fd5b505afa15801561061d573d6000803e3d6000fd5b505050506040513d601f19601f82011682018060405250810190610641919061705a565b905060008173ffffffffffffffffffffffffffffffffffffffff1663bbe4f6db886040518263ffffffff1660e01b815260040161067e91906176e3565b60206040518083038186803b15801561069657600080fd5b505afa1580156106aa573d6000803e3d6000fd5b505050506040513d601f19601f820116820180604052508101906106ce919061705a565b9050600115158273ffffffffffffffffffffffffffffffffffffffff16635b16ebb7836040518263ffffffff1660e01b815260040161070d91906176e3565b602060405180830381600087803b15801561072757600080fd5b505af115801561073b573d6000803e3d6000fd5b505050506040513d601f19601f8201168201806040525081019061075f9190617100565b1515146107a1576040517f08c379a0000000000000000000000000000000000000000000000000000000008152600401610798906177a2565b60405180910390fd5b6107ac878983615b06565b6000808273ffffffffffffffffffffffffffffffffffffffff16632783e4a97f00000000000000000000000000000000000000000000000000000000000000008a6040518363ffffffff1660e01b815260040161080a9291906176fe565b6040805180830381600087803b15801561082357600080fd5b505af1158015610837573d6000803e3d6000fd5b505050506040513d601f19601f8201168201806040525081019061085b9190617445565b91509150868210156108a2576040517f08c379a000000000000000000000000000000000000000000000000000000000815260040161089990617802565b60405180910390fd5b6108ab83615c4c565b85156108bc576108bb83826161ef565b5b8094505050505095945050505050565b6108d4615a61565b73ffffffffffffffffffffffffffffffffffffffff166398fabd3a6040518163ffffffff1660e01b815260040160206040518083038186803b15801561091957600080fd5b505afa15801561092d573d6000803e3d6000fd5b505050506040513d601f19601f82011682018060405250810190610951919061705a565b73ffffffffffffffffffffffffffffffffffffffff163373ffffffffffffffffffffffffffffffffffffffff1614806109d75750600160009054906101000a900473ffffffffffffffffffffffffffffffffffffffff1673ffffffffffffffffffffffffffffffffffffffff163373ffffffffffffffffffffffffffffffffffffffff16145b6109e057600080fd5b6000600160006101000a81548173ffffffffffffffffffffffffffffffffffffffff021916908373ffffffffffffffffffffffffffffffffffffffff160217905550565b610a2c615a61565b73ffffffffffffffffffffffffffffffffffffffff16639d2cc4366040518163ffffffff1660e01b815260040160206040518083038186803b158015610a7157600080fd5b505afa158015610a85573d6000803e3d6000fd5b505050506040513d601f19601f82011682018060405250810190610aa9919061705a565b73ffffffffffffffffffffffffffffffffffffffff163373ffffffffffffffffffffffffffffffffffffffff1614610ae057600080fd5b60008273ffffffffffffffffffffffffffffffffffffffff166382bfefc86040518163ffffffff1660e01b815260040160206040518083038186803b158015610b2857600080fd5b505afa158015610b3c573d6000803e3d6000fd5b505050506040513d601f19601f82011682018060405250810190610b60919061705a565b90506000610b6c615a61565b73ffffffffffffffffffffffffffffffffffffffff16637b0e5c456040518163ffffffff1660e01b815260040160206040518083038186803b158015610bb157600080fd5b505afa158015610bc5573d6000803e3d6000fd5b505050506040513d601f19601f82011682018060405250810190610be9919061705a565b73ffffffffffffffffffffffffffffffffffffffff1663c19387df83856040518363ffffffff1660e01b8152600401610c2392919061775e565b60206040518083038186803b158015610c3b57600080fd5b505afa158015610c4f573d6000803e3d6000fd5b505050506040513d601f19601f82011682018060405250810190610c739190617152565b9050610c7f8185616327565b8373ffffffffffffffffffffffffffffffffffffffff1663fff6cae96040518163ffffffff1660e01b8152600401600060405180830381600087803b158015610cc757600080fd5b505af1158015610cdb573d6000803e3d6000fd5b5050505050505050565b60008311610d28576040517f08c379a0000000000000000000000000000000000000000000000000000000008152600401610d1f906177e2565b60405180910390fd5b6000610d32615a61565b73ffffffffffffffffffffffffffffffffffffffff1663b99b0a0c6040518163ffffffff1660e01b815260040160206040518083038186803b158015610d7757600080fd5b505afa158015610d8b573d6000803e3d6000fd5b505050506040513d601f19601f82011682018060405250810190610daf919061705a565b905060008173ffffffffffffffffffffffffffffffffffffffff1663bbe4f6db846040518263ffffffff1660e01b8152600401610dec91906176e3565b60206040518083038186803b158015610e0457600080fd5b505afa158015610e18573d6000803e3d6000fd5b505050506040513d601f19601f82011682018060405250810190610e3c919061705a565b9050600115158273ffffffffffffffffffffffffffffffffffffffff16635b16ebb7836040518263ffffffff1660e01b8152600401610e7b91906176e3565b602060405180830381600087803b158015610e9557600080fd5b505af1158015610ea9573d6000803e3d6000fd5b505050506040513d601f19601f82011682018060405250810190610ecd9190617100565b151514610f0f576040517f08c379a0000000000000000000000000000000000000000000000000000000008152600401610f06906177a2565b60405180910390fd5b600015158173ffffffffffffffffffffffffffffffffffffffff166362a5af3b6040518163ffffffff1660e01b815260040160206040518083038186803b158015610f5957600080fd5b505afa158015610f6d573d6000803e3d6000fd5b505050506040513d601f19601f82011682018060405250810190610f919190617100565b151514610f9d57600080fd5b6000339050610fae828284896164b7565b8173ffffffffffffffffffffffffffffffffffffffff166286cb0e30836040518363ffffffff1660e01b8152600401610fe89291906176fe565b6040805180830381600087803b15801561100157600080fd5b505af1158015611015573d6000803e3d6000fd5b505050506040513d601f19601f820116820180604052508101906110399190617445565b50506000849050600073ffffffffffffffffffffffffffffffffffffffff168573ffffffffffffffffffffffffffffffffffffffff161415611099577f000000000000000000000000000000000000000000000000000000000000000090505b600086156112be5761113482858473ffffffffffffffffffffffffffffffffffffffff166370a08231306040518263ffffffff1660e01b81526004016110df91906176e3565b60206040518083038186803b1580156110f757600080fd5b505afa15801561110b573d6000803e3d6000fd5b505050506040513d601f19601f8201168201806040525081019061112f9190617152565b6165f0565b8373ffffffffffffffffffffffffffffffffffffffff16632783e4a97f0000000000000000000000000000000000000000000000000000000000000000306040518363ffffffff1660e01b815260040161118f9291906176fe565b6040805180830381600087803b1580156111a857600080fd5b505af11580156111bc573d6000803e3d6000fd5b505050506040513d601f19601f820116820180604052508101906111e09190617445565b9050809150506112b97f0000000000000000000000000000000000000000000000000000000000000000847f000000000000000000000000000000000000000000000000000000000000000073ffffffffffffffffffffffffffffffffffffffff166370a08231306040518263ffffffff1660e01b815260040161126491906176e3565b60206040518083038186803b15801561127c57600080fd5b505afa158015611290573d6000803e3d6000fd5b505050506040513d601f19601f820116820180604052508101906112b49190617152565b6165f0565b6114b7565b6113917f0000000000000000000000000000000000000000000000000000000000000000857f000000000000000000000000000000000000000000000000000000000000000073ffffffffffffffffffffffffffffffffffffffff166370a08231306040518263ffffffff1660e01b815260040161133c91906176e3565b60206040518083038186803b15801561135457600080fd5b505afa158015611368573d6000803e3d6000fd5b505050506040513d601f19601f8201168201806040525081019061138c9190617152565b6165f0565b8373ffffffffffffffffffffffffffffffffffffffff16632783e4a983306040518363ffffffff1660e01b81526004016113cc9291906176fe565b6040805180830381600087803b1580156113e557600080fd5b505af11580156113f9573d6000803e3d6000fd5b505050506040513d601f19601f8201168201806040525081019061141d9190617445565b9050809150506114b6868373ffffffffffffffffffffffffffffffffffffffff166370a08231306040518263ffffffff1660e01b815260040161146091906176e3565b60206040518083038186803b15801561147857600080fd5b505afa15801561148c573d6000803e3d6000fd5b505050506040513d601f19601f820116820180604052508101906114b09190617152565b85616726565b5b6114c084615c4c565b6114ca84826161ef565b5050505050505050565b6114dc615a61565b73ffffffffffffffffffffffffffffffffffffffff166398fabd3a6040518163ffffffff1660e01b815260040160206040518083038186803b15801561152157600080fd5b505afa158015611535573d6000803e3d6000fd5b505050506040513d601f19601f82011682018060405250810190611559919061705a565b73ffffffffffffffffffffffffffffffffffffffff163373ffffffffffffffffffffffffffffffffffffffff1614806115df5750600160009054906101000a900473ffffffffffffffffffffffffffffffffffffffff1673ffffffffffffffffffffffffffffffffffffffff163373ffffffffffffffffffffffffffffffffffffffff16145b6115e857600080fd5b8073ffffffffffffffffffffffffffffffffffffffff166399d786ca6040518163ffffffff1660e01b815260040160206040518083038186803b15801561162e57600080fd5b505afa158015611642573d6000803e3d6000fd5b505050506040513d601f19601f820116820180604052508101906116669190617152565b6003819055506000611676615a61565b73ffffffffffffffffffffffffffffffffffffffff1663b99b0a0c6040518163ffffffff1660e01b815260040160206040518083038186803b1580156116bb57600080fd5b505afa1580156116cf573d6000803e3d6000fd5b505050506040513d601f19601f820116820180604052508101906116f3919061705a565b73ffffffffffffffffffffffffffffffffffffffff166345f6e4606040518163ffffffff1660e01b815260040160006040518083038186803b15801561173857600080fd5b505afa15801561174c573d6000803e3d6000fd5b505050506040513d6000823e3d601f19601f8201168201806040525081019061177591906170bf565b905060005b8151811015611a32578273ffffffffffffffffffffffffffffffffffffffff1663cbb3a14a8383815181106117d8577f4e487b7100000000000000000000000000000000000000000000000000000000600052603260045260246000fd5b60200260200101516040518263ffffffff1660e01b81526004016117fc91906176e3565b602060405180830381600087803b15801561181657600080fd5b505af115801561182a573d6000803e3d6000fd5b505050506040513d601f19601f8201168201806040525081019061184e9190617152565b6007600084848151811061188b577f4e487b7100000000000000000000000000000000000000000000000000000000600052603260045260246000fd5b602002602001015173ffffffffffffffffffffffffffffffffffffffff1673ffffffffffffffffffffffffffffffffffffffff168152602001908152602001600020819055508273ffffffffffffffffffffffffffffffffffffffff1663451918db838381518110611926577f4e487b7100000000000000000000000000000000000000000000000000000000600052603260045260246000fd5b60200260200101516040518263ffffffff1660e01b815260040161194a91906176e3565b602060405180830381600087803b15801561196457600080fd5b505af1158015611978573d6000803e3d6000fd5b505050506040513d601f19601f8201168201806040525081019061199c9190617152565b600860008484815181106119d9577f4e487b7100000000000000000000000000000000000000000000000000000000600052603260045260246000fd5b602002602001015173ffffffffffffffffffffffffffffffffffffffff1673ffffffffffffffffffffffffffffffffffffffff168152602001908152602001600020819055508080611a2a90617b1d565b91505061177a565b505050565b60008311611a7a576040517f08c379a0000000000000000000000000000000000000000000000000000000008152600401611a71906177e2565b60405180910390fd5b8073ffffffffffffffffffffffffffffffffffffffff168273ffffffffffffffffffffffffffffffffffffffff161415611ab357600080fd5b60011515611abf615a61565b73ffffffffffffffffffffffffffffffffffffffff16639d2cc4366040518163ffffffff1660e01b815260040160206040518083038186803b158015611b0457600080fd5b505afa158015611b18573d6000803e3d6000fd5b505050506040513d601f19601f82011682018060405250810190611b3c919061705a565b73ffffffffffffffffffffffffffffffffffffffff1663194e22ce6040518163ffffffff1660e01b8152600401602060405180830381600087803b158015611b8357600080fd5b505af1158015611b97573d6000803e3d6000fd5b505050506040513d601f19601f82011682018060405250810190611bbb9190617100565b15151415611bfe576040517f08c379a0000000000000000000000000000000000000000000000000000000008152600401611bf590617842565b60405180910390fd5b60008173ffffffffffffffffffffffffffffffffffffffff16637535d2466040518163ffffffff1660e01b815260040160206040518083038186803b158015611c4657600080fd5b505afa158015611c5a573d6000803e3d6000fd5b505050506040513d601f19601f82011682018060405250810190611c7e919061705a565b905060011515611c8c615a61565b73ffffffffffffffffffffffffffffffffffffffff1663b99b0a0c6040518163ffffffff1660e01b815260040160206040518083038186803b158015611cd157600080fd5b505afa158015611ce5573d6000803e3d6000fd5b505050506040513d601f19601f82011682018060405250810190611d09919061705a565b73ffffffffffffffffffffffffffffffffffffffff16635b16ebb7836040518263ffffffff1660e01b8152600401611d4191906176e3565b602060405180830381600087803b158015611d5b57600080fd5b505af1158015611d6f573d6000803e3d6000fd5b505050506040513d601f19601f82011682018060405250810190611d939190617100565b151514611dd5576040517f08c379a0000000000000000000000000000000000000000000000000000000008152600401611dcc906177a2565b60405180910390fd5b7f000000000000000000000000000000000000000000000000000000000000000073ffffffffffffffffffffffffffffffffffffffff168373ffffffffffffffffffffffffffffffffffffffff1614611f0f57611e368484306000806105b9565b50611f0a7f0000000000000000000000000000000000000000000000000000000000000000827f000000000000000000000000000000000000000000000000000000000000000073ffffffffffffffffffffffffffffffffffffffff166370a08231306040518263ffffffff1660e01b8152600401611eb591906176e3565b60206040518083038186803b158015611ecd57600080fd5b505afa158015611ee1573d6000803e3d6000fd5b505050506040513d601f19601f82011682018060405250810190611f059190617152565b6165f0565b611f3c565b611f3b7f00000000000000000000000000000000000000000000000000000000000000003383876164b7565b5b60008173ffffffffffffffffffffffffffffffffffffffff1663f1bbdef2336040518263ffffffff1660e01b8152600401611f7791906176e3565b6040805180830381600087803b158015611f9057600080fd5b505af1158015611fa4573d6000803e3d6000fd5b505050506040513d601f19601f82011682018060405250810190611fc89190617445565b915050611fd482615c4c565b611fde82826161ef565b60011515611fea615a61565b73ffffffffffffffffffffffffffffffffffffffff16639d2cc4366040518163ffffffff1660e01b815260040160206040518083038186803b15801561202f57600080fd5b505afa158015612043573d6000803e3d6000fd5b505050506040513d601f19601f82011682018060405250810190612067919061705a565b73ffffffffffffffffffffffffffffffffffffffff1663194e22ce6040518163ffffffff1660e01b8152600401602060405180830381600087803b1580156120ae57600080fd5b505af11580156120c2573d6000803e3d6000fd5b505050506040513d601f19601f820116820180604052508101906120e69190617100565b15151415612129576040517f08c379a000000000000000000000000000000000000000000000000000000000815260040161212090617842565b60405180910390fd5b5050505050565b8273ffffffffffffffffffffffffffffffffffffffff168473ffffffffffffffffffffffffffffffffffffffff16141561216957600080fd5b7f000000000000000000000000000000000000000000000000000000000000000073ffffffffffffffffffffffffffffffffffffffff168473ffffffffffffffffffffffffffffffffffffffff1614156121ce576121c985848484615617565b61260d565b7f000000000000000000000000000000000000000000000000000000000000000073ffffffffffffffffffffffffffffffffffffffff168373ffffffffffffffffffffffffffffffffffffffff161415612236576122308585848460016105b9565b5061260c565b6000612240615a61565b73ffffffffffffffffffffffffffffffffffffffff1663b99b0a0c6040518163ffffffff1660e01b815260040160206040518083038186803b15801561228557600080fd5b505afa158015612299573d6000803e3d6000fd5b505050506040513d601f19601f820116820180604052508101906122bd919061705a565b905060008173ffffffffffffffffffffffffffffffffffffffff1663bbe4f6db866040518263ffffffff1660e01b81526004016122fa91906176e3565b60206040518083038186803b15801561231257600080fd5b505afa158015612326573d6000803e3d6000fd5b505050506040513d601f19601f8201168201806040525081019061234a919061705a565b9050600115158273ffffffffffffffffffffffffffffffffffffffff16635b16ebb7836040518263ffffffff1660e01b815260040161238991906176e3565b602060405180830381600087803b1580156123a357600080fd5b505af11580156123b7573d6000803e3d6000fd5b505050506040513d601f19601f820116820180604052508101906123db9190617100565b15151461241d576040517f08c379a0000000000000000000000000000000000000000000000000000000008152600401612414906177a2565b60405180910390fd5b61242b8787836000806105b9565b506000859050600073ffffffffffffffffffffffffffffffffffffffff168673ffffffffffffffffffffffffffffffffffffffff16141561248a577f000000000000000000000000000000000000000000000000000000000000000090505b6000808373ffffffffffffffffffffffffffffffffffffffff16632783e4a984306040518363ffffffff1660e01b81526004016124c89291906176fe565b6040805180830381600087803b1580156124e157600080fd5b505af11580156124f5573d6000803e3d6000fd5b505050506040513d601f19601f820116820180604052508101906125199190617445565b9150915085821015612560576040517f08c379a000000000000000000000000000000000000000000000000000000000815260040161255790617802565b60405180910390fd5b61256984615c4c565b6125fc888473ffffffffffffffffffffffffffffffffffffffff166370a08231306040518263ffffffff1660e01b81526004016125a691906176e3565b60206040518083038186803b1580156125be57600080fd5b505afa1580156125d2573d6000803e3d6000fd5b505050506040513d601f19601f820116820180604052508101906125f69190617152565b89616726565b61260684826161ef565b50505050505b5b5050505050565b60086020528060005260406000206000915090505481565b6000612636615a61565b73ffffffffffffffffffffffffffffffffffffffff1663b99b0a0c6040518163ffffffff1660e01b815260040160206040518083038186803b15801561267b57600080fd5b505afa15801561268f573d6000803e3d6000fd5b505050506040513d601f19601f820116820180604052508101906126b3919061705a565b905060008173ffffffffffffffffffffffffffffffffffffffff1663bbe4f6db856040518263ffffffff1660e01b81526004016126f091906176e3565b60206040518083038186803b15801561270857600080fd5b505afa15801561271c573d6000803e3d6000fd5b505050506040513d601f19601f82011682018060405250810190612740919061705a565b9050600115158273ffffffffffffffffffffffffffffffffffffffff16635b16ebb7836040518263ffffffff1660e01b815260040161277f91906176e3565b602060405180830381600087803b15801561279957600080fd5b505af11580156127ad573d6000803e3d6000fd5b505050506040513d601f19601f820116820180604052508101906127d19190617100565b151514612813576040517f08c379a000000000000000000000000000000000000000000000000000000000815260040161280a906177a2565b60405180910390fd5b6000849050600073ffffffffffffffffffffffffffffffffffffffff168573ffffffffffffffffffffffffffffffffffffffff161415612871577f000000000000000000000000000000000000000000000000000000000000000090505b8515612ad2576128a27f00000000000000000000000000000000000000000000000000000000000000008830615b06565b6128d97f00000000000000000000000000000000000000000000000000000000000000006002896128d391906179d4565b84616726565b8173ffffffffffffffffffffffffffffffffffffffff16632783e4a982306040518363ffffffff1660e01b81526004016129149291906176fe565b6040805180830381600087803b15801561292d57600080fd5b505af1158015612941573d6000803e3d6000fd5b505050506040513d601f19601f820116820180604052508101906129659190617445565b5050612a3a7f00000000000000000000000000000000000000000000000000000000000000007f000000000000000000000000000000000000000000000000000000000000000073ffffffffffffffffffffffffffffffffffffffff166370a08231306040518263ffffffff1660e01b81526004016129e491906176e3565b60206040518083038186803b1580156129fc57600080fd5b505afa158015612a10573d6000803e3d6000fd5b505050506040513d601f19601f82011682018060405250810190612a349190617152565b84616726565b612acd818273ffffffffffffffffffffffffffffffffffffffff166370a08231306040518263ffffffff1660e01b8152600401612a7791906176e3565b60206040518083038186803b158015612a8f57600080fd5b505afa158015612aa3573d6000803e3d6000fd5b505050506040513d601f19601f82011682018060405250810190612ac79190617152565b84616726565b612d09565b612add858830615b06565b612af481600289612aee91906179d4565b84616726565b8173ffffffffffffffffffffffffffffffffffffffff16632783e4a97f0000000000000000000000000000000000000000000000000000000000000000306040518363ffffffff1660e01b8152600401612b4f9291906176fe565b6040805180830381600087803b158015612b6857600080fd5b505af1158015612b7c573d6000803e3d6000fd5b505050506040513d601f19601f82011682018060405250810190612ba09190617445565b5050612c757f00000000000000000000000000000000000000000000000000000000000000007f000000000000000000000000000000000000000000000000000000000000000073ffffffffffffffffffffffffffffffffffffffff166370a08231306040518263ffffffff1660e01b8152600401612c1f91906176e3565b60206040518083038186803b158015612c3757600080fd5b505afa158015612c4b573d6000803e3d6000fd5b505050506040513d601f19601f82011682018060405250810190612c6f9190617152565b84616726565b612d08818273ffffffffffffffffffffffffffffffffffffffff166370a08231306040518263ffffffff1660e01b8152600401612cb291906176e3565b60206040518083038186803b158015612cca57600080fd5b505afa158015612cde573d6000803e3d6000fd5b505050506040513d601f19601f82011682018060405250810190612d029190617152565b84616726565b5b8173ffffffffffffffffffffffffffffffffffffffff166386d5f618856040518263ffffffff1660e01b8152600401612d4291906176e3565b602060405180830381600087803b158015612d5c57600080fd5b505af1158015612d70573d6000803e3d6000fd5b505050506040513d601f19601f82011682018060405250810190612d949190617152565b50612d9e82615c4c565b50505050505050565b612db48484843385612130565b50505050565b612dc683838333612f4f565b50505050565b612dd4615a61565b73ffffffffffffffffffffffffffffffffffffffff166398fabd3a6040518163ffffffff1660e01b815260040160206040518083038186803b158015612e1957600080fd5b505afa158015612e2d573d6000803e3d6000fd5b505050506040513d601f19601f82011682018060405250810190612e51919061705a565b73ffffffffffffffffffffffffffffffffffffffff163373ffffffffffffffffffffffffffffffffffffffff161480612ed75750600160009054906101000a900473ffffffffffffffffffffffffffffffffffffffff1673ffffffffffffffffffffffffffffffffffffffff163373ffffffffffffffffffffffffffffffffffffffff16145b612ee057600080fd5b8073ffffffffffffffffffffffffffffffffffffffff16637ec3eae5836040518263ffffffff1660e01b8152600401612f1991906178c2565b600060405180830381600087803b158015612f3357600080fd5b505af1158015612f47573d6000803e3d6000fd5b505050505050565b600080612f5a615a61565b73ffffffffffffffffffffffffffffffffffffffff1663b99b0a0c6040518163ffffffff1660e01b815260040160206040518083038186803b158015612f9f57600080fd5b505afa158015612fb3573d6000803e3d6000fd5b505050506040513d601f19601f82011682018060405250810190612fd7919061705a565b905060008173ffffffffffffffffffffffffffffffffffffffff1663bbe4f6db866040518263ffffffff1660e01b815260040161301491906176e3565b60206040518083038186803b15801561302c57600080fd5b505afa158015613040573d6000803e3d6000fd5b505050506040513d601f19601f82011682018060405250810190613064919061705a565b9050600115158273ffffffffffffffffffffffffffffffffffffffff16635b16ebb7836040518263ffffffff1660e01b81526004016130a391906176e3565b602060405180830381600087803b1580156130bd57600080fd5b505af11580156130d1573d6000803e3d6000fd5b505050506040513d601f19601f820116820180604052508101906130f59190617100565b151514613137576040517f08c379a000000000000000000000000000000000000000000000000000000000815260040161312e906177a2565b60405180910390fd5b6131627f00000000000000000000000000000000000000000000000000000000000000008783615b06565b61316d858883615b06565b8073ffffffffffffffffffffffffffffffffffffffff166386d5f618856040518263ffffffff1660e01b81526004016131a691906176e3565b602060405180830381600087803b1580156131c057600080fd5b505af11580156131d4573d6000803e3d6000fd5b505050506040513d601f19601f820116820180604052508101906131f89190617152565b925061320381615c4c565b5050949350505050565b600560009054906101000a900460ff1681565b60035481565b61322e615a61565b73ffffffffffffffffffffffffffffffffffffffff166398fabd3a6040518163ffffffff1660e01b815260040160206040518083038186803b15801561327357600080fd5b505afa158015613287573d6000803e3d6000fd5b505050506040513d601f19601f820116820180604052508101906132ab919061705a565b73ffffffffffffffffffffffffffffffffffffffff163373ffffffffffffffffffffffffffffffffffffffff1614806133315750600160009054906101000a900473ffffffffffffffffffffffffffffffffffffffff1673ffffffffffffffffffffffffffffffffffffffff163373ffffffffffffffffffffffffffffffffffffffff16145b61333a57600080fd5b8073ffffffffffffffffffffffffffffffffffffffff1663474e7302836040518263ffffffff1660e01b815260040161337391906178c2565b600060405180830381600087803b15801561338d57600080fd5b505af11580156133a1573d6000803e3d6000fd5b505050505050565b600083116133ec576040517f08c379a00000000000000000000000000000000000000000000000000000000081526004016133e3906177e2565b60405180910390fd5b8073ffffffffffffffffffffffffffffffffffffffff168273ffffffffffffffffffffffffffffffffffffffff16141561342557600080fd5b60011515613431615a61565b73ffffffffffffffffffffffffffffffffffffffff16639d2cc4366040518163ffffffff1660e01b815260040160206040518083038186803b15801561347657600080fd5b505afa15801561348a573d6000803e3d6000fd5b505050506040513d601f19601f820116820180604052508101906134ae919061705a565b73ffffffffffffffffffffffffffffffffffffffff1663194e22ce6040518163ffffffff1660e01b8152600401602060405180830381600087803b1580156134f557600080fd5b505af1158015613509573d6000803e3d6000fd5b505050506040513d601f19601f8201168201806040525081019061352d9190617100565b15151415613570576040517f08c379a000000000000000000000000000000000000000000000000000000000815260040161356790617842565b60405180910390fd5b600061357a615a61565b73ffffffffffffffffffffffffffffffffffffffff1663b99b0a0c6040518163ffffffff1660e01b815260040160206040518083038186803b1580156135bf57600080fd5b505afa1580156135d3573d6000803e3d6000fd5b505050506040513d601f19601f820116820180604052508101906135f7919061705a565b905060008373ffffffffffffffffffffffffffffffffffffffff16637535d2466040518163ffffffff1660e01b815260040160206040518083038186803b15801561364157600080fd5b505afa158015613655573d6000803e3d6000fd5b505050506040513d601f19601f82011682018060405250810190613679919061705a565b9050600115158273ffffffffffffffffffffffffffffffffffffffff16635b16ebb7836040518263ffffffff1660e01b81526004016136b891906176e3565b602060405180830381600087803b1580156136d257600080fd5b505af11580156136e6573d6000803e3d6000fd5b505050506040513d601f19601f8201168201806040525081019061370a9190617100565b15151461374c576040517f08c379a0000000000000000000000000000000000000000000000000000000008152600401613743906177a2565b60405180910390fd5b613758843383886164b7565b60007f000000000000000000000000000000000000000000000000000000000000000073ffffffffffffffffffffffffffffffffffffffff168473ffffffffffffffffffffffffffffffffffffffff161415613845578173ffffffffffffffffffffffffffffffffffffffff16636aff945433336040518363ffffffff1660e01b81526004016137e99291906176fe565b6040805180830381600087803b15801561380257600080fd5b505af1158015613816573d6000803e3d6000fd5b505050506040513d601f19601f8201168201806040525081019061383a9190617445565b905080915050613cad565b60008373ffffffffffffffffffffffffffffffffffffffff1663bbe4f6db866040518263ffffffff1660e01b815260040161388091906176e3565b60206040518083038186803b15801561389857600080fd5b505afa1580156138ac573d6000803e3d6000fd5b505050506040513d601f19601f820116820180604052508101906138d0919061705a565b9050600115158473ffffffffffffffffffffffffffffffffffffffff16635b16ebb7836040518263ffffffff1660e01b815260040161390f91906176e3565b602060405180830381600087803b15801561392957600080fd5b505af115801561393d573d6000803e3d6000fd5b505050506040513d601f19601f820116820180604052508101906139619190617100565b1515146139a3576040517f08c379a000000000000000000000000000000000000000000000000000000000815260040161399a906177a2565b60405180910390fd5b6000808473ffffffffffffffffffffffffffffffffffffffff16636aff945430336040518363ffffffff1660e01b81526004016139e19291906176fe565b6040805180830381600087803b1580156139fa57600080fd5b505af1158015613a0e573d6000803e3d6000fd5b505050506040513d601f19601f82011682018060405250810190613a329190617445565b905080945050613b0b7f00000000000000000000000000000000000000000000000000000000000000007f000000000000000000000000000000000000000000000000000000000000000073ffffffffffffffffffffffffffffffffffffffff166370a08231306040518263ffffffff1660e01b8152600401613ab591906176e3565b60206040518083038186803b158015613acd57600080fd5b505afa158015613ae1573d6000803e3d6000fd5b505050506040513d601f19601f82011682018060405250810190613b059190617152565b85616726565b600073ffffffffffffffffffffffffffffffffffffffff168773ffffffffffffffffffffffffffffffffffffffff1614613bd6578273ffffffffffffffffffffffffffffffffffffffff16632783e4a988336040518363ffffffff1660e01b8152600401613b7a9291906176fe565b6040805180830381600087803b158015613b9357600080fd5b505af1158015613ba7573d6000803e3d6000fd5b505050506040513d601f19601f82011682018060405250810190613bcb9190617445565b905080925050613c96565b8273ffffffffffffffffffffffffffffffffffffffff16632783e4a97f0000000000000000000000000000000000000000000000000000000000000000306040518363ffffffff1660e01b8152600401613c319291906176fe565b6040805180830381600087803b158015613c4a57600080fd5b505af1158015613c5e573d6000803e3d6000fd5b505050506040513d601f19601f82011682018060405250810190613c829190617445565b8093508192505050613c95878233616726565b5b613c9f83615c4c565b613ca983836161ef565b5050505b613cb682615c4c565b613cc082826161ef565b60011515613ccc615a61565b73ffffffffffffffffffffffffffffffffffffffff16639d2cc4366040518163ffffffff1660e01b815260040160206040518083038186803b158015613d1157600080fd5b505afa158015613d25573d6000803e3d6000fd5b505050506040513d601f19601f82011682018060405250810190613d49919061705a565b73ffffffffffffffffffffffffffffffffffffffff1663194e22ce6040518163ffffffff1660e01b8152600401602060405180830381600087803b158015613d9057600080fd5b505af1158015613da4573d6000803e3d6000fd5b505050506040513d601f19601f82011682018060405250810190613dc89190617100565b15151415613e0b576040517f08c379a0000000000000000000000000000000000000000000000000000000008152600401613e0290617842565b60405180910390fd5b505050505050565b613e1b615a61565b73ffffffffffffffffffffffffffffffffffffffff166398fabd3a6040518163ffffffff1660e01b815260040160206040518083038186803b158015613e6057600080fd5b505afa158015613e74573d6000803e3d6000fd5b505050506040513d601f19601f82011682018060405250810190613e98919061705a565b73ffffffffffffffffffffffffffffffffffffffff163373ffffffffffffffffffffffffffffffffffffffff161480613f1e5750600160009054906101000a900473ffffffffffffffffffffffffffffffffffffffff1673ffffffffffffffffffffffffffffffffffffffff163373ffffffffffffffffffffffffffffffffffffffff16145b613f2757600080fd5b600082118015613f38575061138882105b613f77576040517f08c379a0000000000000000000000000000000000000000000000000000000008152600401613f6e906177e2565b60405180910390fd5b6103e88110613fbb576040517f08c379a0000000000000000000000000000000000000000000000000000000008152600401613fb2906177e2565b60405180910390fd5b81600281905550670de0b6b3a764000081613fd69190617a05565b6006819055505050565b613fec8383833361262c565b505050565b60065481565b6002600054141561403d576040517f08c379a0000000000000000000000000000000000000000000000000000000008152600401614034906178a2565b60405180910390fd5b60026000819055508073ffffffffffffffffffffffffffffffffffffffff168273ffffffffffffffffffffffffffffffffffffffff16141580156140815750600083115b6140c0576040517f08c379a00000000000000000000000000000000000000000000000000000000081526004016140b7906177e2565b60405180910390fd5b60006140ca615a61565b73ffffffffffffffffffffffffffffffffffffffff1663b99b0a0c6040518163ffffffff1660e01b815260040160206040518083038186803b15801561410f57600080fd5b505afa158015614123573d6000803e3d6000fd5b505050506040513d601f19601f82011682018060405250810190614147919061705a565b9050600115158173ffffffffffffffffffffffffffffffffffffffff16635b16ebb7856040518263ffffffff1660e01b815260040161418691906176e3565b602060405180830381600087803b1580156141a057600080fd5b505af11580156141b4573d6000803e3d6000fd5b505050506040513d601f19601f820116820180604052508101906141d89190617100565b15151461421a576040517f08c379a0000000000000000000000000000000000000000000000000000000008152600401614211906177a2565b60405180910390fd5b8073ffffffffffffffffffffffffffffffffffffffff16638dcb4c93846040518263ffffffff1660e01b815260040161425391906176e3565b60206040518083038186803b15801561426b57600080fd5b505afa15801561427f573d6000803e3d6000fd5b505050506040513d601f19601f820116820180604052508101906142a39190617100565b1561433757600015158373ffffffffffffffffffffffffffffffffffffffff166362a5af3b6040518163ffffffff1660e01b815260040160206040518083038186803b1580156142f257600080fd5b505afa158015614306573d6000803e3d6000fd5b505050506040513d601f19601f8201168201806040525081019061432a9190617100565b15151461433657600080fd5b5b600115158173ffffffffffffffffffffffffffffffffffffffff16635b16ebb7846040518263ffffffff1660e01b815260040161437491906176e3565b602060405180830381600087803b15801561438e57600080fd5b505af11580156143a2573d6000803e3d6000fd5b505050506040513d601f19601f820116820180604052508101906143c69190617100565b151514614408576040517f08c379a00000000000000000000000000000000000000000000000000000000081526004016143ff906177a2565b60405180910390fd5b60008373ffffffffffffffffffffffffffffffffffffffff166382bfefc86040518163ffffffff1660e01b815260040160206040518083038186803b15801561445057600080fd5b505afa158015614464573d6000803e3d6000fd5b505050506040513d601f19601f82011682018060405250810190614488919061705a565b905060008373ffffffffffffffffffffffffffffffffffffffff166382bfefc86040518163ffffffff1660e01b815260040160206040518083038186803b1580156144d257600080fd5b505afa1580156144e6573d6000803e3d6000fd5b505050506040513d601f19601f8201168201806040525081019061450a919061705a565b9050600033905061451d8682888a6164b7565b8573ffffffffffffffffffffffffffffffffffffffff166286cb0e30836040518363ffffffff1660e01b81526004016145579291906176fe565b6040805180830381600087803b15801561457057600080fd5b505af1158015614584573d6000803e3d6000fd5b505050506040513d601f19601f820116820180604052508101906145a89190617445565b505061463d83878573ffffffffffffffffffffffffffffffffffffffff166370a08231306040518263ffffffff1660e01b81526004016145e891906176e3565b60206040518083038186803b15801561460057600080fd5b505afa158015614614573d6000803e3d6000fd5b505050506040513d601f19601f820116820180604052508101906146389190617152565b6165f0565b8573ffffffffffffffffffffffffffffffffffffffff16632783e4a97f0000000000000000000000000000000000000000000000000000000000000000306040518363ffffffff1660e01b81526004016146989291906176fe565b6040805180830381600087803b1580156146b157600080fd5b505af11580156146c5573d6000803e3d6000fd5b505050506040513d601f19601f820116820180604052508101906146e99190617445565b50506147ca7f00000000000000000000000000000000000000000000000000000000000000008660027f000000000000000000000000000000000000000000000000000000000000000073ffffffffffffffffffffffffffffffffffffffff166370a08231306040518263ffffffff1660e01b815260040161476b91906176e3565b60206040518083038186803b15801561478357600080fd5b505afa158015614797573d6000803e3d6000fd5b505050506040513d601f19601f820116820180604052508101906147bb9190617152565b6147c591906179d4565b6165f0565b8473ffffffffffffffffffffffffffffffffffffffff16632783e4a983306040518363ffffffff1660e01b81526004016148059291906176fe565b6040805180830381600087803b15801561481e57600080fd5b505af1158015614832573d6000803e3d6000fd5b505050506040513d601f19601f820116820180604052508101906148569190617445565b505061492b7f0000000000000000000000000000000000000000000000000000000000000000867f000000000000000000000000000000000000000000000000000000000000000073ffffffffffffffffffffffffffffffffffffffff166370a08231306040518263ffffffff1660e01b81526004016148d691906176e3565b60206040518083038186803b1580156148ee57600080fd5b505afa158015614902573d6000803e3d6000fd5b505050506040513d601f19601f820116820180604052508101906149269190617152565b6165f0565b6149be82868473ffffffffffffffffffffffffffffffffffffffff166370a08231306040518263ffffffff1660e01b815260040161496991906176e3565b60206040518083038186803b15801561498157600080fd5b505afa158015614995573d6000803e3d6000fd5b505050506040513d601f19601f820116820180604052508101906149b99190617152565b6165f0565b8473ffffffffffffffffffffffffffffffffffffffff166386d5f618826040518263ffffffff1660e01b81526004016149f791906176e3565b602060405180830381600087803b158015614a1157600080fd5b505af1158015614a25573d6000803e3d6000fd5b505050506040513d601f19601f82011682018060405250810190614a499190617152565b50614a5386615c4c565b614a5c85615c4c565b505050506001600081905550505050565b60008211614ab0576040517f08c379a0000000000000000000000000000000000000000000000000000000008152600401614aa7906177e2565b60405180910390fd5b6000614aba615a61565b73ffffffffffffffffffffffffffffffffffffffff1663b99b0a0c6040518163ffffffff1660e01b815260040160206040518083038186803b158015614aff57600080fd5b505afa158015614b13573d6000803e3d6000fd5b505050506040513d601f19601f82011682018060405250810190614b37919061705a565b905060008173ffffffffffffffffffffffffffffffffffffffff1663bbe4f6db846040518263ffffffff1660e01b8152600401614b7491906176e3565b60206040518083038186803b158015614b8c57600080fd5b505afa158015614ba0573d6000803e3d6000fd5b505050506040513d601f19601f82011682018060405250810190614bc4919061705a565b90508173ffffffffffffffffffffffffffffffffffffffff16638dcb4c93826040518263ffffffff1660e01b8152600401614bff91906176e3565b60206040518083038186803b158015614c1757600080fd5b505afa158015614c2b573d6000803e3d6000fd5b505050506040513d601f19601f82011682018060405250810190614c4f9190617100565b15614ce357600015158173ffffffffffffffffffffffffffffffffffffffff166362a5af3b6040518163ffffffff1660e01b815260040160206040518083038186803b158015614c9e57600080fd5b505afa158015614cb2573d6000803e3d6000fd5b505050506040513d601f19601f82011682018060405250810190614cd69190617100565b151514614ce257600080fd5b5b600115158273ffffffffffffffffffffffffffffffffffffffff16635b16ebb7836040518263ffffffff1660e01b8152600401614d2091906176e3565b602060405180830381600087803b158015614d3a57600080fd5b505af1158015614d4e573d6000803e3d6000fd5b505050506040513d601f19601f82011682018060405250810190614d729190617100565b151514614db4576040517f08c379a0000000000000000000000000000000000000000000000000000000008152600401614dab906177a2565b60405180910390fd5b6000339050614dc5828284886164b7565b600073ffffffffffffffffffffffffffffffffffffffff168473ffffffffffffffffffffffffffffffffffffffff1614614e8b578173ffffffffffffffffffffffffffffffffffffffff166286cb0e82836040518363ffffffff1660e01b8152600401614e339291906176fe565b6040805180830381600087803b158015614e4c57600080fd5b505af1158015614e60573d6000803e3d6000fd5b505050506040513d601f19601f82011682018060405250810190614e849190617445565b50506150ab565b8173ffffffffffffffffffffffffffffffffffffffff166286cb0e30836040518363ffffffff1660e01b8152600401614ec59291906176fe565b6040805180830381600087803b158015614ede57600080fd5b505af1158015614ef2573d6000803e3d6000fd5b505050506040513d601f19601f82011682018060405250810190614f169190617445565b505060007f000000000000000000000000000000000000000000000000000000000000000073ffffffffffffffffffffffffffffffffffffffff166370a08231306040518263ffffffff1660e01b8152600401614f7391906176e3565b60206040518083038186803b158015614f8b57600080fd5b505afa158015614f9f573d6000803e3d6000fd5b505050506040513d601f19601f82011682018060405250810190614fc39190617152565b905060007f000000000000000000000000000000000000000000000000000000000000000073ffffffffffffffffffffffffffffffffffffffff166370a08231306040518263ffffffff1660e01b815260040161502091906176e3565b60206040518083038186803b15801561503857600080fd5b505afa15801561504c573d6000803e3d6000fd5b505050506040513d601f19601f820116820180604052508101906150709190617152565b905061507d868285616726565b6150a87f00000000000000000000000000000000000000000000000000000000000000008385616726565b50505b6150b482615c4c565b5050505050565b60076020528060005260406000206000915090505481565b6150db615a61565b73ffffffffffffffffffffffffffffffffffffffff16639d2cc4366040518163ffffffff1660e01b815260040160206040518083038186803b15801561512057600080fd5b505afa158015615134573d6000803e3d6000fd5b505050506040513d601f19601f82011682018060405250810190615158919061705a565b73ffffffffffffffffffffffffffffffffffffffff1663194e22ce6040518163ffffffff1660e01b8152600401602060405180830381600087803b15801561519f57600080fd5b505af11580156151b3573d6000803e3d6000fd5b505050506040513d601f19601f820116820180604052508101906151d79190617100565b156154cf5760006151e6615a61565b73ffffffffffffffffffffffffffffffffffffffff1663b99b0a0c6040518163ffffffff1660e01b815260040160206040518083038186803b15801561522b57600080fd5b505afa15801561523f573d6000803e3d6000fd5b505050506040513d601f19601f82011682018060405250810190615263919061705a565b73ffffffffffffffffffffffffffffffffffffffff1663abc764da6040518163ffffffff1660e01b815260040160006040518083038186803b1580156152a857600080fd5b505afa1580156152bc573d6000803e3d6000fd5b505050506040513d6000823e3d601f19601f820116820180604052508101906152e591906170bf565b905060006001905060005b82518110156153d457828181518110615332577f4e487b7100000000000000000000000000000000000000000000000000000000600052603260045260246000fd5b602002602001015173ffffffffffffffffffffffffffffffffffffffff166362a5af3b6040518163ffffffff1660e01b815260040160206040518083038186803b15801561537f57600080fd5b505afa158015615393573d6000803e3d6000fd5b505050506040513d601f19601f820116820180604052508101906153b79190617100565b156153c157600091505b80806153cc90617b1d565b9150506152f0565b5080156154cc576153e3615a61565b73ffffffffffffffffffffffffffffffffffffffff16639d2cc4366040518163ffffffff1660e01b815260040160206040518083038186803b15801561542857600080fd5b505afa15801561543c573d6000803e3d6000fd5b505050506040513d601f19601f82011682018060405250810190615460919061705a565b73ffffffffffffffffffffffffffffffffffffffff16637828c71760006040518263ffffffff1660e01b81526004016154999190617787565b600060405180830381600087803b1580156154b357600080fd5b505af11580156154c7573d6000803e3d6000fd5b505050505b50505b565b60025481565b6154df615a61565b73ffffffffffffffffffffffffffffffffffffffff166398fabd3a6040518163ffffffff1660e01b815260040160206040518083038186803b15801561552457600080fd5b505afa158015615538573d6000803e3d6000fd5b505050506040513d601f19601f8201168201806040525081019061555c919061705a565b73ffffffffffffffffffffffffffffffffffffffff163373ffffffffffffffffffffffffffffffffffffffff1614806155e25750600160009054906101000a900473ffffffffffffffffffffffffffffffffffffffff1673ffffffffffffffffffffffffffffffffffffffff163373ffffffffffffffffffffffffffffffffffffffff16145b6155eb57600080fd5b600560009054906101000a900460ff1615600560006101000a81548160ff021916908315150217905550565b6000615621615a61565b73ffffffffffffffffffffffffffffffffffffffff1663b99b0a0c6040518163ffffffff1660e01b815260040160206040518083038186803b15801561566657600080fd5b505afa15801561567a573d6000803e3d6000fd5b505050506040513d601f19601f8201168201806040525081019061569e919061705a565b905060008173ffffffffffffffffffffffffffffffffffffffff1663bbe4f6db866040518263ffffffff1660e01b81526004016156db91906176e3565b60206040518083038186803b1580156156f357600080fd5b505afa158015615707573d6000803e3d6000fd5b505050506040513d601f19601f8201168201806040525081019061572b919061705a565b9050600115158273ffffffffffffffffffffffffffffffffffffffff16635b16ebb7836040518263ffffffff1660e01b815260040161576a91906176e3565b602060405180830381600087803b15801561578457600080fd5b505af1158015615798573d6000803e3d6000fd5b505050506040513d601f19601f820116820180604052508101906157bc9190617100565b1515146157fe576040517f08c379a00000000000000000000000000000000000000000000000000000000081526004016157f5906177a2565b60405180910390fd5b6158297f00000000000000000000000000000000000000000000000000000000000000008783615b06565b60008073ffffffffffffffffffffffffffffffffffffffff168673ffffffffffffffffffffffffffffffffffffffff161461593e576000808373ffffffffffffffffffffffffffffffffffffffff16632783e4a989896040518363ffffffff1660e01b815260040161589c9291906176fe565b6040805180830381600087803b1580156158b557600080fd5b505af11580156158c9573d6000803e3d6000fd5b505050506040513d601f19601f820116820180604052508101906158ed9190617445565b9150915085821015615934576040517f08c379a000000000000000000000000000000000000000000000000000000000815260040161592b90617802565b60405180910390fd5b8092505050615a45565b6000808373ffffffffffffffffffffffffffffffffffffffff16632783e4a97f0000000000000000000000000000000000000000000000000000000000000000306040518363ffffffff1660e01b815260040161599c9291906176fe565b6040805180830381600087803b1580156159b557600080fd5b505af11580156159c9573d6000803e3d6000fd5b505050506040513d601f19601f820116820180604052508101906159ed9190617445565b9150915085821015615a34576040517f08c379a0000000000000000000000000000000000000000000000000000000008152600401615a2b90617802565b60405180910390fd5b615a3f888389616726565b80925050505b615a4e82615c4c565b615a5882826161ef565b50505050505050565b60007f000000000000000000000000000000000000000000000000000000000000000073ffffffffffffffffffffffffffffffffffffffff166398fabd3a6040518163ffffffff1660e01b815260040160206040518083038186803b158015615ac957600080fd5b505afa158015615add573d6000803e3d6000fd5b505050506040513d601f19601f82011682018060405250810190615b019190617129565b905090565b60026000541415615b4c576040517f08c379a0000000000000000000000000000000000000000000000000000000008152600401615b43906178a2565b60405180910390fd5b600260008190555060008211615b97576040517f08c379a0000000000000000000000000000000000000000000000000000000008152600401615b8e90617862565b60405180910390fd5b600073ffffffffffffffffffffffffffffffffffffffff168373ffffffffffffffffffffffffffffffffffffffff161415615c3257348214615bd857600080fd5b615c027f000000000000000000000000000000000000000000000000000000000000000083616866565b615c2d7f000000000000000000000000000000000000000000000000000000000000000082846165f0565b615c3f565b615c3e833383856164b7565b5b6001600081905550505050565b615c54615a61565b73ffffffffffffffffffffffffffffffffffffffff1663b99b0a0c6040518163ffffffff1660e01b815260040160206040518083038186803b158015615c9957600080fd5b505afa158015615cad573d6000803e3d6000fd5b505050506040513d601f19601f82011682018060405250810190615cd1919061705a565b73ffffffffffffffffffffffffffffffffffffffff16638dcb4c93826040518263ffffffff1660e01b8152600401615d0991906176e3565b60206040518083038186803b158015615d2157600080fd5b505afa158015615d35573d6000803e3d6000fd5b505050506040513d601f19601f82011682018060405250810190615d599190617100565b156161ec578073ffffffffffffffffffffffffffffffffffffffff166362a5af3b6040518163ffffffff1660e01b815260040160206040518083038186803b158015615da457600080fd5b505afa158015615db8573d6000803e3d6000fd5b505050506040513d601f19601f82011682018060405250810190615ddc9190617100565b15615ed257615de9615a61565b73ffffffffffffffffffffffffffffffffffffffff16639d2cc4366040518163ffffffff1660e01b815260040160206040518083038186803b158015615e2e57600080fd5b505afa158015615e42573d6000803e3d6000fd5b505050506040513d601f19601f82011682018060405250810190615e66919061705a565b73ffffffffffffffffffffffffffffffffffffffff16637828c71760016040518263ffffffff1660e01b8152600401615e9f9190617787565b600060405180830381600087803b158015615eb957600080fd5b505af1158015615ecd573d6000803e3d6000fd5b505050505b615eda615a61565b73ffffffffffffffffffffffffffffffffffffffff16639d2cc4366040518163ffffffff1660e01b815260040160206040518083038186803b158015615f1f57600080fd5b505afa158015615f33573d6000803e3d6000fd5b505050506040513d601f19601f82011682018060405250810190615f57919061705a565b73ffffffffffffffffffffffffffffffffffffffff1663194e22ce6040518163ffffffff1660e01b8152600401602060405180830381600087803b158015615f9e57600080fd5b505af1158015615fb2573d6000803e3d6000fd5b505050506040513d601f19601f82011682018060405250810190615fd69190617100565b156161eb576000615fe5615a61565b73ffffffffffffffffffffffffffffffffffffffff16639d2cc4366040518163ffffffff1660e01b815260040160206040518083038186803b15801561602a57600080fd5b505afa15801561603e573d6000803e3d6000fd5b505050506040513d601f19601f82011682018060405250810190616062919061705a565b73ffffffffffffffffffffffffffffffffffffffff1663fd7e1bee6040518163ffffffff1660e01b8152600401602060405180830381600087803b1580156160a957600080fd5b505af11580156160bd573d6000803e3d6000fd5b505050506040513d601f19601f820116820180604052508101906160e19190617152565b9050610e10816160f1919061797e565b4211156161e957616100615a61565b73ffffffffffffffffffffffffffffffffffffffff16639d2cc4366040518163ffffffff1660e01b815260040160206040518083038186803b15801561614557600080fd5b505afa158015616159573d6000803e3d6000fd5b505050506040513d601f19601f8201168201806040525081019061617d919061705a565b73ffffffffffffffffffffffffffffffffffffffff16637828c71760006040518263ffffffff1660e01b81526004016161b69190617787565b600060405180830381600087803b1580156161d057600080fd5b505af11580156161e4573d6000803e3d6000fd5b505050505b505b5b50565b600115156161fb615a61565b73ffffffffffffffffffffffffffffffffffffffff1663b99b0a0c6040518163ffffffff1660e01b815260040160206040518083038186803b15801561624057600080fd5b505afa158015616254573d6000803e3d6000fd5b505050506040513d601f19601f82011682018060405250810190616278919061705a565b73ffffffffffffffffffffffffffffffffffffffff16638dcb4c93846040518263ffffffff1660e01b81526004016162b091906176e3565b60206040518083038186803b1580156162c857600080fd5b505afa1580156162dc573d6000803e3d6000fd5b505050506040513d601f19601f820116820180604052508101906163009190617100565b15151415616323576006548110156163185760065490505b616322828261698c565b5b5050565b6000600354141561633a57426003819055505b62278d0060035461634b919061797e565b42116163e45781600760008373ffffffffffffffffffffffffffffffffffffffff1673ffffffffffffffffffffffffffffffffffffffff1681526020019081526020016000205461639c919061797e565b600760008373ffffffffffffffffffffffffffffffffffffffff1673ffffffffffffffffffffffffffffffffffffffff168152602001908152602001600020819055506164b3565b42600381905550600760008273ffffffffffffffffffffffffffffffffffffffff1673ffffffffffffffffffffffffffffffffffffffff16815260200190815260200160002054600860008373ffffffffffffffffffffffffffffffffffffffff1673ffffffffffffffffffffffffffffffffffffffff1681526020019081526020016000208190555081600760008373ffffffffffffffffffffffffffffffffffffffff1673ffffffffffffffffffffffffffffffffffffffff168152602001908152602001600020819055505b5050565b6000808573ffffffffffffffffffffffffffffffffffffffff166323b872dd8686866040516024016164eb93929190617727565b6040516020818303038152906040529060e01b6020820180517bffffffffffffffffffffffffffffffffffffffffffffffffffffffff838183161783525050505060405161653991906176cc565b6000604051808303816000865af19150503d8060008114616576576040519150601f19603f3d011682016040523d82523d6000602084013e61657b565b606091505b50915091508180156165a957506000815114806165a85750808060200190518101906165a79190617100565b5b5b6165e8576040517f08c379a00000000000000000000000000000000000000000000000000000000081526004016165df90617882565b60405180910390fd5b505050505050565b6000808473ffffffffffffffffffffffffffffffffffffffff1663a9059cbb858560405160240161662292919061775e565b6040516020818303038152906040529060e01b6020820180517bffffffffffffffffffffffffffffffffffffffffffffffffffffffff838183161783525050505060405161667091906176cc565b6000604051808303816000865af19150503d80600081146166ad576040519150601f19603f3d011682016040523d82523d6000602084013e6166b2565b606091505b50915091508180156166e057506000815114806166df5750808060200190518101906166de9190617100565b5b5b61671f576040517f08c379a0000000000000000000000000000000000000000000000000000000008152600401616716906177c2565b60405180910390fd5b5050505050565b6002600054141561676c576040517f08c379a0000000000000000000000000000000000000000000000000000000008152600401616763906178a2565b60405180910390fd5b6002600081905550600082111561685957600073ffffffffffffffffffffffffffffffffffffffff168373ffffffffffffffffffffffffffffffffffffffff16141561684c577f000000000000000000000000000000000000000000000000000000000000000073ffffffffffffffffffffffffffffffffffffffff16632e1a7d4d836040518263ffffffff1660e01b815260040161680b91906178c2565b600060405180830381600087803b15801561682557600080fd5b505af1158015616839573d6000803e3d6000fd5b505050506168478183616866565b616858565b6168578382846165f0565b5b5b6001600081905550505050565b60008273ffffffffffffffffffffffffffffffffffffffff1682600067ffffffffffffffff8111156168c1577f4e487b7100000000000000000000000000000000000000000000000000000000600052604160045260246000fd5b6040519080825280601f01601f1916602001820160405280156168f35781602001600182028036833780820191505090505b5060405161690191906176cc565b60006040518083038185875af1925050503d806000811461693e576040519150601f19603f3d011682016040523d82523d6000602084013e616943565b606091505b5050905080616987576040517f08c379a000000000000000000000000000000000000000000000000000000000815260040161697e90617822565b60405180910390fd5b505050565b60007f000000000000000000000000000000000000000000000000000000000000000073ffffffffffffffffffffffffffffffffffffffff166370a082316169d2615a61565b73ffffffffffffffffffffffffffffffffffffffff16639d2cc4366040518163ffffffff1660e01b815260040160206040518083038186803b158015616a1757600080fd5b505afa158015616a2b573d6000803e3d6000fd5b505050506040513d601f19601f82011682018060405250810190616a4f919061705a565b6040518263ffffffff1660e01b8152600401616a6b91906176e3565b60206040518083038186803b158015616a8357600080fd5b505afa158015616a97573d6000803e3d6000fd5b505050506040513d601f19601f82011682018060405250810190616abb9190617152565b90506000616ac7615a61565b73ffffffffffffffffffffffffffffffffffffffff16639d2cc4366040518163ffffffff1660e01b815260040160206040518083038186803b158015616b0c57600080fd5b505afa158015616b20573d6000803e3d6000fd5b505050506040513d601f19601f82011682018060405250810190616b44919061705a565b73ffffffffffffffffffffffffffffffffffffffff16632267716c6040518163ffffffff1660e01b8152600401602060405180830381600087803b158015616b8b57600080fd5b505af1158015616b9f573d6000803e3d6000fd5b505050506040513d601f19601f82011682018060405250810190616bc39190617100565b9050600082118015616bd25750805b15616f02576000616be1615a61565b73ffffffffffffffffffffffffffffffffffffffff1663b99b0a0c6040518163ffffffff1660e01b815260040160206040518083038186803b158015616c2657600080fd5b505afa158015616c3a573d6000803e3d6000fd5b505050506040513d601f19601f82011682018060405250810190616c5e919061705a565b73ffffffffffffffffffffffffffffffffffffffff16638bc51e366040518163ffffffff1660e01b815260040160206040518083038186803b158015616ca357600080fd5b505afa158015616cb7573d6000803e3d6000fd5b505050506040513d601f19601f82011682018060405250810190616cdb9190617152565b90506004548114616cee57806004819055505b60006127108260025486616d029190617a05565b616d0c91906179d4565b616d1691906179d4565b90508085600760008973ffffffffffffffffffffffffffffffffffffffff1673ffffffffffffffffffffffffffffffffffffffff16815260200190815260200160002054616d64919061797e565b1015616eff57616d748587616327565b616d7c615a61565b73ffffffffffffffffffffffffffffffffffffffff16639d2cc4366040518163ffffffff1660e01b815260040160206040518083038186803b158015616dc157600080fd5b505afa158015616dd5573d6000803e3d6000fd5b505050506040513d601f19601f82011682018060405250810190616df9919061705a565b73ffffffffffffffffffffffffffffffffffffffff16637d458baa86886040518363ffffffff1660e01b8152600401616e339291906178dd565b600060405180830381600087803b158015616e4d57600080fd5b505af1158015616e61573d6000803e3d6000fd5b505050508573ffffffffffffffffffffffffffffffffffffffff1663fff6cae96040518163ffffffff1660e01b8152600401600060405180830381600087803b158015616ead57600080fd5b505af1158015616ec1573d6000803e3d6000fd5b505050507ff6a7e669306918b018d1eb595a21c8180bdecc0c90847daef23f9cf5fbd4902a8686604051616ef692919061775e565b60405180910390a15b50505b50505050565b6000616f1b616f168461792b565b617906565b90508083825260208201905082856020860282011115616f3a57600080fd5b60005b85811015616f6a5781616f508882616f89565b845260208401935060208301925050600181019050616f3d565b5050509392505050565b600081359050616f8381617dc1565b92915050565b600081519050616f9881617dc1565b92915050565b600082601f830112616faf57600080fd5b8151616fbf848260208601616f08565b91505092915050565b600081359050616fd781617dd8565b92915050565b600081519050616fec81617dd8565b92915050565b60008151905061700181617def565b92915050565b60008135905061701681617e06565b92915050565b60008151905061702b81617e06565b92915050565b60006020828403121561704357600080fd5b600061705184828501616f74565b91505092915050565b60006020828403121561706c57600080fd5b600061707a84828501616f89565b91505092915050565b6000806040838503121561709657600080fd5b60006170a485828601616f74565b92505060206170b585828601617007565b9150509250929050565b6000602082840312156170d157600080fd5b600082015167ffffffffffffffff8111156170eb57600080fd5b6170f784828501616f9e565b91505092915050565b60006020828403121561711257600080fd5b600061712084828501616fdd565b91505092915050565b60006020828403121561713b57600080fd5b600061714984828501616ff2565b91505092915050565b60006020828403121561716457600080fd5b60006171728482850161701c565b91505092915050565b6000806040838503121561718e57600080fd5b600061719c85828601617007565b92505060206171ad85828601616f74565b9150509250929050565b6000806000606084860312156171cc57600080fd5b60006171da86828701617007565b93505060206171eb86828701616f74565b92505060406171fc86828701616f74565b9150509250925092565b600080600080600060a0868803121561721e57600080fd5b600061722c88828901617007565b955050602061723d88828901616f74565b945050604061724e88828901616f74565b935050606061725f88828901616f74565b925050608061727088828901617007565b9150509295509295909350565b6000806000806080858703121561729357600080fd5b60006172a187828801617007565b94505060206172b287828801616f74565b93505060406172c387828801616f74565b92505060606172d487828801617007565b91505092959194509250565b600080600080600060a086880312156172f857600080fd5b600061730688828901617007565b955050602061731788828901616f74565b945050604061732888828901616f74565b935050606061733988828901617007565b925050608061734a88828901616fc8565b9150509295509295909350565b60008060006060848603121561736c57600080fd5b600061737a86828701617007565b935050602061738b86828701616fc8565b925050604061739c86828701616f74565b9150509250925092565b600080600080608085870312156173bc57600080fd5b60006173ca87828801617007565b94505060206173db87828801616fc8565b93505060406173ec87828801616f74565b92505060606173fd87828801616f74565b91505092959194509250565b6000806040838503121561741c57600080fd5b600061742a85828601617007565b925050602061743b85828601617007565b9150509250929050565b6000806040838503121561745857600080fd5b60006174668582860161701c565b92505060206174778582860161701c565b9150509250929050565b60008060006060848603121561749657600080fd5b60006174a486828701617007565b93505060206174b586828701617007565b92505060406174c686828701616f74565b9150509250925092565b600080600080608085870312156174e657600080fd5b60006174f487828801617007565b945050602061750587828801617007565b935050604061751687828801616f74565b925050606061752787828801616f74565b91505092959194509250565b61753c81617a5f565b82525050565b61754b81617a71565b82525050565b600061755c82617957565b6175668185617962565b9350617576818560208601617ab9565b80840191505092915050565b600061758f60058361796d565b915061759a82617c04565b602082019050919050565b60006175b2601f8361796d565b91506175bd82617c2d565b602082019050919050565b60006175d560068361796d565b91506175e082617c56565b602082019050919050565b60006175f860058361796d565b915061760382617c7f565b602082019050919050565b600061761b60238361796d565b915061762682617ca8565b604082019050919050565b600061763e60058361796d565b915061764982617cf7565b602082019050919050565b600061766160048361796d565b915061766c82617d20565b602082019050919050565b600061768460248361796d565b915061768f82617d49565b604082019050919050565b60006176a7601f8361796d565b91506176b282617d98565b602082019050919050565b6176c681617aaf565b82525050565b60006176d88284617551565b915081905092915050565b60006020820190506176f86000830184617533565b92915050565b60006040820190506177136000830185617533565b6177206020830184617533565b9392505050565b600060608201905061773c6000830186617533565b6177496020830185617533565b61775660408301846176bd565b949350505050565b60006040820190506177736000830185617533565b61778060208301846176bd565b9392505050565b600060208201905061779c6000830184617542565b92915050565b600060208201905081810360008301526177bb81617582565b9050919050565b600060208201905081810360008301526177db816175a5565b9050919050565b600060208201905081810360008301526177fb816175c8565b9050919050565b6000602082019050818103600083015261781b816175eb565b9050919050565b6000602082019050818103600083015261783b8161760e565b9050919050565b6000602082019050818103600083015261785b81617631565b9050919050565b6000602082019050818103600083015261787b81617654565b9050919050565b6000602082019050818103600083015261789b81617677565b9050919050565b600060208201905081810360008301526178bb8161769a565b9050919050565b60006020820190506178d760008301846176bd565b92915050565b60006040820190506178f260008301856176bd565b6178ff6020830184617533565b9392505050565b6000617910617921565b905061791c8282617aec565b919050565b6000604051905090565b600067ffffffffffffffff82111561794657617945617bc4565b5b602082029050602081019050919050565b600081519050919050565b600081905092915050565b600082825260208201905092915050565b600061798982617aaf565b915061799483617aaf565b9250827fffffffffffffffffffffffffffffffffffffffffffffffffffffffffffffffff038211156179c9576179c8617b66565b5b828201905092915050565b60006179df82617aaf565b91506179ea83617aaf565b9250826179fa576179f9617b95565b5b828204905092915050565b6000617a1082617aaf565b9150617a1b83617aaf565b9250817fffffffffffffffffffffffffffffffffffffffffffffffffffffffffffffffff0483118215151615617a5457617a53617b66565b5b828202905092915050565b6000617a6a82617a8f565b9050919050565b60008115159050919050565b6000617a8882617a5f565b9050919050565b600073ffffffffffffffffffffffffffffffffffffffff82169050919050565b6000819050919050565b60005b83811015617ad7578082015181840152602081019050617abc565b83811115617ae6576000848401525b50505050565b617af582617bf3565b810181811067ffffffffffffffff82111715617b1457617b13617bc4565b5b80604052505050565b6000617b2882617aaf565b91507fffffffffffffffffffffffffffffffffffffffffffffffffffffffffffffffff821415617b5b57617b5a617b66565b5b600182019050919050565b7f4e487b7100000000000000000000000000000000000000000000000000000000600052601160045260246000fd5b7f4e487b7100000000000000000000000000000000000000000000000000000000600052601260045260246000fd5b7f4e487b7100000000000000000000000000000000000000000000000000000000600052604160045260246000fd5b6000601f19601f8301169050919050565b7f21504f4f4c000000000000000000000000000000000000000000000000000000600082015250565b7f5472616e7366657248656c7065723a205452414e534645525f4641494c454400600082015250565b7f2156414c49440000000000000000000000000000000000000000000000000000600082015250565b7f2152415445000000000000000000000000000000000000000000000000000000600082015250565b7f5472616e7366657248656c7065723a20424e425f5452414e534645525f46414960008201527f4c45440000000000000000000000000000000000000000000000000000000000602082015250565b7f2153414645000000000000000000000000000000000000000000000000000000600082015250565b7f2147415300000000000000000000000000000000000000000000000000000000600082015250565b7f5472616e7366657248656c7065723a205452414e534645525f46524f4d5f464160008201527f494c454400000000000000000000000000000000000000000000000000000000602082015250565b7f5265656e7472616e637947756172643a207265656e7472616e742063616c6c00600082015250565b617dca81617a5f565b8114617dd557600080fd5b50565b617de181617a71565b8114617dec57600080fd5b50565b617df881617a7d565b8114617e0357600080fd5b50565b617e0f81617aaf565b8114617e1a57600080fd5b5056fea26469706673582212200853523a1f31c018b9e3d4180c9a4378721a1d0cf5aa94ee47afe7cf20964bcf64736f6c63430008030033",
  "linkReferences": {},
  "deployedLinkReferences": {}
}